{
  "_format": "hh-sol-artifact-1",
  "contractName": "NFTAuction",
  "sourceName": "contracts/auctionContract.sol",
  "abi": [
    {
      "inputs": [
        {
          "internalType": "contract IAuAToken",
          "name": "_paymentTokenAddress",
          "type": "address"
        },
        {
          "internalType": "contract IAuANFT",
          "name": "_NftContractAddress",
          "type": "address"
        }
      ],
      "stateMutability": "nonpayable",
      "type": "constructor"
    },
    {
      "anonymous": false,
      "inputs": [
        {
          "indexed": true,
          "internalType": "uint256",
          "name": "tokenId",
          "type": "uint256"
        },
        {
          "indexed": true,
          "internalType": "address",
          "name": "winner",
          "type": "address"
        },
        {
          "indexed": false,
          "internalType": "uint256",
          "name": "winningBid",
          "type": "uint256"
        }
      ],
      "name": "AuctionEnded",
      "type": "event"
    },
    {
      "anonymous": false,
      "inputs": [
        {
          "indexed": true,
          "internalType": "uint256",
          "name": "tokenId",
          "type": "uint256"
        },
        {
          "indexed": true,
          "internalType": "address",
          "name": "bidder",
          "type": "address"
        },
        {
          "indexed": false,
          "internalType": "uint256",
          "name": "bidAmount",
          "type": "uint256"
        }
      ],
      "name": "BidPlaced",
      "type": "event"
    },
    {
      "anonymous": false,
      "inputs": [
        {
          "indexed": true,
          "internalType": "address",
          "name": "token",
          "type": "address"
        },
        {
          "indexed": true,
          "internalType": "address",
          "name": "owner",
          "type": "address"
        },
        {
          "indexed": false,
          "internalType": "uint256",
          "name": "amount",
          "type": "uint256"
        }
      ],
      "name": "EmergencyTokenWithdrawal",
      "type": "event"
    },
    {
      "anonymous": false,
      "inputs": [
        {
          "indexed": true,
          "internalType": "address",
          "name": "owner",
          "type": "address"
        },
        {
          "indexed": false,
          "internalType": "uint256",
          "name": "amount",
          "type": "uint256"
        }
      ],
      "name": "EmergencyWithdrawal",
      "type": "event"
    },
    {
      "anonymous": false,
      "inputs": [
        {
          "indexed": false,
          "internalType": "uint256",
          "name": "newListingFee",
          "type": "uint256"
        }
      ],
      "name": "ListingFeeUpdated",
      "type": "event"
    },
    {
      "anonymous": false,
      "inputs": [
        {
          "indexed": true,
          "internalType": "uint256",
          "name": "tokenId",
          "type": "uint256"
        },
        {
          "indexed": true,
          "internalType": "address",
          "name": "seller",
          "type": "address"
        },
        {
          "indexed": false,
          "internalType": "uint256",
          "name": "listingFee",
          "type": "uint256"
        }
      ],
      "name": "NFTListed",
      "type": "event"
    },
    {
      "anonymous": false,
      "inputs": [
        {
          "indexed": true,
          "internalType": "address",
          "name": "previousOwner",
          "type": "address"
        },
        {
          "indexed": true,
          "internalType": "address",
          "name": "newOwner",
          "type": "address"
        }
      ],
      "name": "OwnershipTransferred",
      "type": "event"
    },
    {
      "inputs": [],
      "name": "NftContractAddress",
      "outputs": [
        {
          "internalType": "contract IAuANFT",
          "name": "",
          "type": "address"
        }
      ],
      "stateMutability": "view",
      "type": "function"
    },
    {
      "inputs": [
        {
          "internalType": "uint256",
          "name": "",
          "type": "uint256"
        }
      ],
      "name": "auctions",
      "outputs": [
        {
          "internalType": "address",
          "name": "owner",
          "type": "address"
        },
        {
          "internalType": "contract IAuANFT",
          "name": "nftContract",
          "type": "address"
        },
        {
          "internalType": "uint256",
          "name": "tokenId",
          "type": "uint256"
        },
        {
          "internalType": "uint256",
          "name": "startingPrice",
          "type": "uint256"
        },
        {
          "internalType": "uint256",
          "name": "startTime",
          "type": "uint256"
        },
        {
          "internalType": "uint256",
          "name": "endTime",
          "type": "uint256"
        },
        {
          "internalType": "address",
          "name": "highestBidder",
          "type": "address"
        },
        {
          "internalType": "uint256",
          "name": "highestBid",
          "type": "uint256"
        },
        {
          "internalType": "bool",
          "name": "ended",
          "type": "bool"
        }
      ],
      "stateMutability": "view",
      "type": "function"
    },
    {
      "inputs": [
        {
          "internalType": "address",
          "name": "_token",
          "type": "address"
        }
      ],
      "name": "emergencyWithdrawERC20",
      "outputs": [],
      "stateMutability": "nonpayable",
      "type": "function"
    },
    {
      "inputs": [],
      "name": "emergencyWithdrawETH",
      "outputs": [],
      "stateMutability": "nonpayable",
      "type": "function"
    },
    {
      "inputs": [
        {
          "internalType": "uint256",
          "name": "_tokenId",
          "type": "uint256"
        }
      ],
      "name": "endAuction",
      "outputs": [],
      "stateMutability": "nonpayable",
      "type": "function"
    },
    {
      "inputs": [],
      "name": "getListingFee",
      "outputs": [
        {
          "internalType": "uint256",
          "name": "",
          "type": "uint256"
        }
      ],
      "stateMutability": "view",
      "type": "function"
    },
    {
      "inputs": [
        {
          "internalType": "uint256",
          "name": "_tokenId",
          "type": "uint256"
        }
      ],
      "name": "getNFTMetadata",
      "outputs": [
        {
          "internalType": "string",
          "name": "",
          "type": "string"
        }
      ],
      "stateMutability": "view",
      "type": "function"
    },
    {
      "inputs": [],
      "name": "getUserNFTs",
      "outputs": [
        {
          "internalType": "uint256[]",
          "name": "",
          "type": "uint256[]"
        }
      ],
      "stateMutability": "view",
      "type": "function"
    },
    {
      "inputs": [],
      "name": "innerAddress",
      "outputs": [
        {
          "internalType": "uint256",
          "name": "",
          "type": "uint256"
        }
      ],
      "stateMutability": "view",
      "type": "function"
    },
    {
      "inputs": [
        {
          "internalType": "uint256",
          "name": "tokenId",
          "type": "uint256"
        },
        {
          "internalType": "uint256",
          "name": "_startingPrice",
          "type": "uint256"
        },
        {
          "internalType": "uint256",
          "name": "_startTime",
          "type": "uint256"
        },
        {
          "internalType": "uint256",
          "name": "_duration",
          "type": "uint256"
        }
      ],
      "name": "listNFTForAuction",
      "outputs": [],
      "stateMutability": "nonpayable",
      "type": "function"
    },
    {
      "inputs": [],
      "name": "mintNFT",
      "outputs": [],
      "stateMutability": "nonpayable",
      "type": "function"
    },
    {
      "inputs": [],
      "name": "owner",
      "outputs": [
        {
          "internalType": "address",
          "name": "",
          "type": "address"
        }
      ],
      "stateMutability": "view",
      "type": "function"
    },
    {
      "inputs": [],
      "name": "paymentTokenAddress",
      "outputs": [
        {
          "internalType": "contract IAuAToken",
          "name": "",
          "type": "address"
        }
      ],
      "stateMutability": "view",
      "type": "function"
    },
    {
      "inputs": [
        {
          "internalType": "uint256",
          "name": "_tokenId",
          "type": "uint256"
        },
        {
          "internalType": "uint256",
          "name": "_bidAmount",
          "type": "uint256"
        }
      ],
      "name": "placeBid",
      "outputs": [],
      "stateMutability": "nonpayable",
      "type": "function"
    },
    {
      "inputs": [],
      "name": "renounceOwnership",
      "outputs": [],
      "stateMutability": "nonpayable",
      "type": "function"
    },
    {
      "inputs": [
        {
          "internalType": "uint256",
          "name": "_listingFee",
          "type": "uint256"
        }
      ],
      "name": "setListingFee",
      "outputs": [],
      "stateMutability": "nonpayable",
      "type": "function"
    },
    {
      "inputs": [
        {
          "internalType": "address",
          "name": "newOwner",
          "type": "address"
        }
      ],
      "name": "transferOwnership",
      "outputs": [],
      "stateMutability": "nonpayable",
      "type": "function"
    },
    {
      "inputs": [
        {
          "internalType": "address",
          "name": "",
          "type": "address"
        },
        {
          "internalType": "uint256",
          "name": "",
          "type": "uint256"
        }
      ],
      "name": "userNFTs",
      "outputs": [
        {
          "internalType": "uint256",
          "name": "",
          "type": "uint256"
        }
      ],
      "stateMutability": "view",
      "type": "function"
    }
  ],
  "bytecode": "0x60806040523480156200001157600080fd5b506040516200282738038062002827833981810160405281019062000037919062000270565b620000576200004b620000e160201b60201c565b620000e960201b60201c565b81600160006101000a81548173ffffffffffffffffffffffffffffffffffffffff021916908373ffffffffffffffffffffffffffffffffffffffff16021790555080600260006101000a81548173ffffffffffffffffffffffffffffffffffffffff021916908373ffffffffffffffffffffffffffffffffffffffff1602179055505050620002b7565b600033905090565b60008060009054906101000a900473ffffffffffffffffffffffffffffffffffffffff169050816000806101000a81548173ffffffffffffffffffffffffffffffffffffffff021916908373ffffffffffffffffffffffffffffffffffffffff1602179055508173ffffffffffffffffffffffffffffffffffffffff168173ffffffffffffffffffffffffffffffffffffffff167f8be0079c531659141344cd1fd0a4f28419497f9722a3daafe3b4186f6b6457e060405160405180910390a35050565b600080fd5b600073ffffffffffffffffffffffffffffffffffffffff82169050919050565b6000620001df82620001b2565b9050919050565b6000620001f382620001d2565b9050919050565b6200020581620001e6565b81146200021157600080fd5b50565b6000815190506200022581620001fa565b92915050565b60006200023882620001d2565b9050919050565b6200024a816200022b565b81146200025657600080fd5b50565b6000815190506200026a816200023f565b92915050565b600080604083850312156200028a5762000289620001ad565b5b60006200029a8582860162000214565b9250506020620002ad8582860162000259565b9150509250929050565b61256080620002c76000396000f3fe608060405234801561001057600080fd5b50600436106101165760003560e01c806384536017116100a2578063afb18fe711610071578063afb18fe71461029b578063b8fe6abe146102b9578063b9a2de3a146102d7578063f2fde38b146102f3578063fdc5ab8e1461030f57610116565b806384536017146102375780638da5cb5b146102415780639941c1521461025f5780639f91467b1461027d57610116565b806350c6474b116100e957806350c6474b1461018d578063571a26a0146101a957806357c90de5146101e15780636be9a6f1146101fd578063715018a61461022d57610116565b8063131dbd091461011b57806314f710fe14610137578063291c73c31461014157806340c442de14610171575b600080fd5b610135600480360381019061013091906117fc565b61032d565b005b61013f610376565b005b61015b60048036038101906101569190611887565b61048e565b60405161016891906118d6565b60405180910390f35b61018b600480360381019061018691906118f1565b6104bf565b005b6101a760048036038101906101a2919061191e565b610679565b005b6101c360048036038101906101be91906117fc565b610c5a565b6040516101d899989796959493929190611a0e565b60405180910390f35b6101fb60048036038101906101f69190611a9b565b610d15565b005b610217600480360381019061021291906117fc565b611029565b6040516102249190611b6b565b60405180910390f35b6102356111e3565b005b61023f6111f7565b005b6102496112a4565b6040516102569190611b8d565b60405180910390f35b6102676112cd565b60405161027491906118d6565b60405180910390f35b6102856112d3565b6040516102929190611ba8565b60405180910390f35b6102a36112f9565b6040516102b09190611be4565b60405180910390f35b6102c161131f565b6040516102ce91906118d6565b60405180910390f35b6102f160048036038101906102ec91906117fc565b611329565b005b61030d600480360381019061030891906118f1565b611550565b005b6103176115d3565b6040516103249190611cbd565b60405180910390f35b610335611668565b806006819055507f5fb4654f1efe30c6141eaa6855ffcb27e0b361d899b05e21b1a4d0b3e71e14db8160405161036b91906118d6565b60405180910390a150565b60003390506000600260009054906101000a900473ffffffffffffffffffffffffffffffffffffffff1673ffffffffffffffffffffffffffffffffffffffff16636a627842836040518263ffffffff1660e01b81526004016103d89190611b8d565b6020604051808303816000875af11580156103f7573d6000803e3d6000fd5b505050506040513d601f19601f8201168201806040525081019061041b9190611cf4565b905080600381905550600560003373ffffffffffffffffffffffffffffffffffffffff1673ffffffffffffffffffffffffffffffffffffffff1681526020019081526020016000208190806001815401808255809150506001900390600052602060002001600090919091909150555050565b600560205281600052604060002081815481106104aa57600080fd5b90600052602060002001600091509150505481565b6104c7611668565b60008173ffffffffffffffffffffffffffffffffffffffff166370a08231306040518263ffffffff1660e01b81526004016105029190611b8d565b602060405180830381865afa15801561051f573d6000803e3d6000fd5b505050506040513d601f19601f820116820180604052508101906105439190611cf4565b90508173ffffffffffffffffffffffffffffffffffffffff1663a9059cbb6105696112a4565b836040518363ffffffff1660e01b8152600401610587929190611d21565b6020604051808303816000875af11580156105a6573d6000803e3d6000fd5b505050506040513d601f19601f820116820180604052508101906105ca9190611d76565b610609576040517f08c379a000000000000000000000000000000000000000000000000000000000815260040161060090611def565b60405180910390fd5b6106116112a4565b73ffffffffffffffffffffffffffffffffffffffff168273ffffffffffffffffffffffffffffffffffffffff167fa4e7b83d59f83358c69c32a951cf5f617e749b38fdb1e2ff13524b83ffd42c998360405161066d91906118d6565b60405180910390a35050565b600654600160009054906101000a900473ffffffffffffffffffffffffffffffffffffffff1673ffffffffffffffffffffffffffffffffffffffff166370a08231336040518263ffffffff1660e01b81526004016106d79190611b8d565b602060405180830381865afa1580156106f4573d6000803e3d6000fd5b505050506040513d601f19601f820116820180604052508101906107189190611cf4565b11610758576040517f08c379a000000000000000000000000000000000000000000000000000000000815260040161074f90611e81565b60405180910390fd5b3373ffffffffffffffffffffffffffffffffffffffff16600260009054906101000a900473ffffffffffffffffffffffffffffffffffffffff1673ffffffffffffffffffffffffffffffffffffffff16636352211e866040518263ffffffff1660e01b81526004016107ca91906118d6565b602060405180830381865afa1580156107e7573d6000803e3d6000fd5b505050506040513d601f19601f8201168201806040525081019061080b9190611eb6565b73ffffffffffffffffffffffffffffffffffffffff1614610861576040517f08c379a000000000000000000000000000000000000000000000000000000000815260040161085890611f2f565b60405180910390fd5b6004600085815260200190815260200160002060080160009054906101000a900460ff16156108c5576040517f08c379a00000000000000000000000000000000000000000000000000000000081526004016108bc90611fc1565b60405180910390fd5b600160009054906101000a900473ffffffffffffffffffffffffffffffffffffffff1673ffffffffffffffffffffffffffffffffffffffff166323b872dd33306006546040518463ffffffff1660e01b815260040161092693929190611fe1565b6020604051808303816000875af1158015610945573d6000803e3d6000fd5b505050506040513d601f19601f820116820180604052508101906109699190611d76565b506040518061012001604052803373ffffffffffffffffffffffffffffffffffffffff168152602001600260009054906101000a900473ffffffffffffffffffffffffffffffffffffffff1673ffffffffffffffffffffffffffffffffffffffff16815260200185815260200184815260200183426109e89190612047565b81526020018284426109fa9190612047565b610a049190612047565b8152602001600073ffffffffffffffffffffffffffffffffffffffff16815260200160008152602001600015158152506004600086815260200190815260200160002060008201518160000160006101000a81548173ffffffffffffffffffffffffffffffffffffffff021916908373ffffffffffffffffffffffffffffffffffffffff16021790555060208201518160010160006101000a81548173ffffffffffffffffffffffffffffffffffffffff021916908373ffffffffffffffffffffffffffffffffffffffff16021790555060408201518160020155606082015181600301556080820151816004015560a0820151816005015560c08201518160060160006101000a81548173ffffffffffffffffffffffffffffffffffffffff021916908373ffffffffffffffffffffffffffffffffffffffff16021790555060e082015181600701556101008201518160080160006101000a81548160ff021916908315150217905550905050600260009054906101000a900473ffffffffffffffffffffffffffffffffffffffff1673ffffffffffffffffffffffffffffffffffffffff166323b872dd3330876040518463ffffffff1660e01b8152600401610bd193929190611fe1565b600060405180830381600087803b158015610beb57600080fd5b505af1158015610bff573d6000803e3d6000fd5b505050503373ffffffffffffffffffffffffffffffffffffffff16847f5f9c03de076f5063cd3ebcfe8ef7aa8af378e4b35a83c77ba9777e97083879a2600654604051610c4c91906118d6565b60405180910390a350505050565b60046020528060005260406000206000915090508060000160009054906101000a900473ffffffffffffffffffffffffffffffffffffffff16908060010160009054906101000a900473ffffffffffffffffffffffffffffffffffffffff16908060020154908060030154908060040154908060050154908060060160009054906101000a900473ffffffffffffffffffffffffffffffffffffffff16908060070154908060080160009054906101000a900460ff16905089565b60006004600084815260200190815260200160002090508060080160009054906101000a900460ff1615610d7e576040517f08c379a0000000000000000000000000000000000000000000000000000000008152600401610d75906120c7565b60405180910390fd5b80600701548211610dc4576040517f08c379a0000000000000000000000000000000000000000000000000000000008152600401610dbb90612159565b60405180910390fd5b600160009054906101000a900473ffffffffffffffffffffffffffffffffffffffff1673ffffffffffffffffffffffffffffffffffffffff166323b872dd3330856040518463ffffffff1660e01b8152600401610e2393929190611fe1565b6020604051808303816000875af1158015610e42573d6000803e3d6000fd5b505050506040513d601f19601f82011682018060405250810190610e669190611d76565b50600073ffffffffffffffffffffffffffffffffffffffff168160060160009054906101000a900473ffffffffffffffffffffffffffffffffffffffff1673ffffffffffffffffffffffffffffffffffffffff1614610f8957600160009054906101000a900473ffffffffffffffffffffffffffffffffffffffff1673ffffffffffffffffffffffffffffffffffffffff1663a9059cbb8260060160009054906101000a900473ffffffffffffffffffffffffffffffffffffffff1683600701546040518363ffffffff1660e01b8152600401610f44929190611d21565b6020604051808303816000875af1158015610f63573d6000803e3d6000fd5b505050506040513d601f19601f82011682018060405250810190610f879190611d76565b505b338160060160006101000a81548173ffffffffffffffffffffffffffffffffffffffff021916908373ffffffffffffffffffffffffffffffffffffffff1602179055508181600701819055503373ffffffffffffffffffffffffffffffffffffffff16837f0e54eff26401bf69b81b26f60bd85ef47f5d85275c1d268d84f68d6897431c478460405161101c91906118d6565b60405180910390a3505050565b6060600073ffffffffffffffffffffffffffffffffffffffff16600260009054906101000a900473ffffffffffffffffffffffffffffffffffffffff1673ffffffffffffffffffffffffffffffffffffffff16636352211e846040518263ffffffff1660e01b815260040161109e91906118d6565b602060405180830381865afa1580156110bb573d6000803e3d6000fd5b505050506040513d601f19601f820116820180604052508101906110df9190611eb6565b73ffffffffffffffffffffffffffffffffffffffff1603611135576040517f08c379a000000000000000000000000000000000000000000000000000000000815260040161112c906121c5565b60405180910390fd5b6000600260009054906101000a900473ffffffffffffffffffffffffffffffffffffffff1673ffffffffffffffffffffffffffffffffffffffff1663c87b56dd846040518263ffffffff1660e01b815260040161119291906118d6565b600060405180830381865afa1580156111af573d6000803e3d6000fd5b505050506040513d6000823e3d601f19601f820116820180604052508101906111d8919061230b565b905080915050919050565b6111eb611668565b6111f560006116e6565b565b6111ff611668565b6112076112a4565b73ffffffffffffffffffffffffffffffffffffffff166108fc479081150290604051600060405180830381858888f1935050505015801561124c573d6000803e3d6000fd5b506112556112a4565b73ffffffffffffffffffffffffffffffffffffffff167f23d6711a1d031134a36921253c75aa59e967d38e369ac625992824315e204f204760405161129a91906118d6565b60405180910390a2565b60008060009054906101000a900473ffffffffffffffffffffffffffffffffffffffff16905090565b60035481565b600260009054906101000a900473ffffffffffffffffffffffffffffffffffffffff1681565b600160009054906101000a900473ffffffffffffffffffffffffffffffffffffffff1681565b6000600654905090565b60006004600083815260200190815260200160002090508060080160009054906101000a900460ff1615611392576040517f08c379a0000000000000000000000000000000000000000000000000000000008152600401611389906123a0565b60405180910390fd5b80600501544210156113d9576040517f08c379a00000000000000000000000000000000000000000000000000000000081526004016113d09061240c565b60405180910390fd5b60018160080160006101000a81548160ff0219169083151502179055508060010160009054906101000a900473ffffffffffffffffffffffffffffffffffffffff1673ffffffffffffffffffffffffffffffffffffffff166323b872dd8260000160009054906101000a900473ffffffffffffffffffffffffffffffffffffffff168360060160009054906101000a900473ffffffffffffffffffffffffffffffffffffffff1684600201546040518463ffffffff1660e01b81526004016114a393929190611fe1565b600060405180830381600087803b1580156114bd57600080fd5b505af11580156114d1573d6000803e3d6000fd5b505050508060060160009054906101000a900473ffffffffffffffffffffffffffffffffffffffff1673ffffffffffffffffffffffffffffffffffffffff16827fd2aa34a4fdbbc6dff6a3e56f46e0f3ae2a31d7785ff3487aa5c95c642acea501836007015460405161154491906118d6565b60405180910390a35050565b611558611668565b600073ffffffffffffffffffffffffffffffffffffffff168173ffffffffffffffffffffffffffffffffffffffff16036115c7576040517f08c379a00000000000000000000000000000000000000000000000000000000081526004016115be9061249e565b60405180910390fd5b6115d0816116e6565b50565b6060600560003373ffffffffffffffffffffffffffffffffffffffff1673ffffffffffffffffffffffffffffffffffffffff16815260200190815260200160002080548060200260200160405190810160405280929190818152602001828054801561165e57602002820191906000526020600020905b81548152602001906001019080831161164a575b5050505050905090565b6116706117aa565b73ffffffffffffffffffffffffffffffffffffffff1661168e6112a4565b73ffffffffffffffffffffffffffffffffffffffff16146116e4576040517f08c379a00000000000000000000000000000000000000000000000000000000081526004016116db9061250a565b60405180910390fd5b565b60008060009054906101000a900473ffffffffffffffffffffffffffffffffffffffff169050816000806101000a81548173ffffffffffffffffffffffffffffffffffffffff021916908373ffffffffffffffffffffffffffffffffffffffff1602179055508173ffffffffffffffffffffffffffffffffffffffff168173ffffffffffffffffffffffffffffffffffffffff167f8be0079c531659141344cd1fd0a4f28419497f9722a3daafe3b4186f6b6457e060405160405180910390a35050565b600033905090565b6000604051905090565b600080fd5b600080fd5b6000819050919050565b6117d9816117c6565b81146117e457600080fd5b50565b6000813590506117f6816117d0565b92915050565b600060208284031215611812576118116117bc565b5b6000611820848285016117e7565b91505092915050565b600073ffffffffffffffffffffffffffffffffffffffff82169050919050565b600061185482611829565b9050919050565b61186481611849565b811461186f57600080fd5b50565b6000813590506118818161185b565b92915050565b6000806040838503121561189e5761189d6117bc565b5b60006118ac85828601611872565b92505060206118bd858286016117e7565b9150509250929050565b6118d0816117c6565b82525050565b60006020820190506118eb60008301846118c7565b92915050565b600060208284031215611907576119066117bc565b5b600061191584828501611872565b91505092915050565b60008060008060808587031215611938576119376117bc565b5b6000611946878288016117e7565b9450506020611957878288016117e7565b9350506040611968878288016117e7565b9250506060611979878288016117e7565b91505092959194509250565b61198e81611849565b82525050565b6000819050919050565b60006119b96119b46119af84611829565b611994565b611829565b9050919050565b60006119cb8261199e565b9050919050565b60006119dd826119c0565b9050919050565b6119ed816119d2565b82525050565b60008115159050919050565b611a08816119f3565b82525050565b600061012082019050611a24600083018c611985565b611a31602083018b6119e4565b611a3e604083018a6118c7565b611a4b60608301896118c7565b611a5860808301886118c7565b611a6560a08301876118c7565b611a7260c0830186611985565b611a7f60e08301856118c7565b611a8d6101008301846119ff565b9a9950505050505050505050565b60008060408385031215611ab257611ab16117bc565b5b6000611ac0858286016117e7565b9250506020611ad1858286016117e7565b9150509250929050565b600081519050919050565b600082825260208201905092915050565b60005b83811015611b15578082015181840152602081019050611afa565b60008484015250505050565b6000601f19601f8301169050919050565b6000611b3d82611adb565b611b478185611ae6565b9350611b57818560208601611af7565b611b6081611b21565b840191505092915050565b60006020820190508181036000830152611b858184611b32565b905092915050565b6000602082019050611ba26000830184611985565b92915050565b6000602082019050611bbd60008301846119e4565b92915050565b6000611bce826119c0565b9050919050565b611bde81611bc3565b82525050565b6000602082019050611bf96000830184611bd5565b92915050565b600081519050919050565b600082825260208201905092915050565b6000819050602082019050919050565b611c34816117c6565b82525050565b6000611c468383611c2b565b60208301905092915050565b6000602082019050919050565b6000611c6a82611bff565b611c748185611c0a565b9350611c7f83611c1b565b8060005b83811015611cb0578151611c978882611c3a565b9750611ca283611c52565b925050600181019050611c83565b5085935050505092915050565b60006020820190508181036000830152611cd78184611c5f565b905092915050565b600081519050611cee816117d0565b92915050565b600060208284031215611d0a57611d096117bc565b5b6000611d1884828501611cdf565b91505092915050565b6000604082019050611d366000830185611985565b611d4360208301846118c7565b9392505050565b611d53816119f3565b8114611d5e57600080fd5b50565b600081519050611d7081611d4a565b92915050565b600060208284031215611d8c57611d8b6117bc565b5b6000611d9a84828501611d61565b91505092915050565b7f546f6b656e207472616e73666572206661696c65640000000000000000000000600082015250565b6000611dd9601583611ae6565b9150611de482611da3565b602082019050919050565b60006020820190508181036000830152611e0881611dcc565b9050919050565b7f596f7520646f6e2774206861766520656e6f7567682041754120746f20636f7660008201527f657220746865206c697374696e67204665650000000000000000000000000000602082015250565b6000611e6b603283611ae6565b9150611e7682611e0f565b604082019050919050565b60006020820190508181036000830152611e9a81611e5e565b9050919050565b600081519050611eb08161185b565b92915050565b600060208284031215611ecc57611ecb6117bc565b5b6000611eda84828501611ea1565b91505092915050565b7f546865204e465420646f65736e27742062656c6f6e6720746f20796f75000000600082015250565b6000611f19601d83611ae6565b9150611f2482611ee3565b602082019050919050565b60006020820190508181036000830152611f4881611f0c565b9050919050565b7f4e465420697320616c726561647920696e20616e20616374697665206175637460008201527f696f6e0000000000000000000000000000000000000000000000000000000000602082015250565b6000611fab602383611ae6565b9150611fb682611f4f565b604082019050919050565b60006020820190508181036000830152611fda81611f9e565b9050919050565b6000606082019050611ff66000830186611985565b6120036020830185611985565b61201060408301846118c7565b949350505050565b7f4e487b7100000000000000000000000000000000000000000000000000000000600052601160045260246000fd5b6000612052826117c6565b915061205d836117c6565b925082820190508082111561207557612074612018565b5b92915050565b7f41756374696f6e2068617320656e646564000000000000000000000000000000600082015250565b60006120b1601183611ae6565b91506120bc8261207b565b602082019050919050565b600060208201905081810360008301526120e0816120a4565b9050919050565b7f42696420616d6f756e74206d7573742062652067726561746572207468616e2060008201527f7468652063757272656e74206869676865737420626964000000000000000000602082015250565b6000612143603783611ae6565b915061214e826120e7565b604082019050919050565b6000602082019050818103600083015261217281612136565b9050919050565b7f4e465420646f6573206e6f742065786973740000000000000000000000000000600082015250565b60006121af601283611ae6565b91506121ba82612179565b602082019050919050565b600060208201905081810360008301526121de816121a2565b9050919050565b600080fd5b600080fd5b7f4e487b7100000000000000000000000000000000000000000000000000000000600052604160045260246000fd5b61222782611b21565b810181811067ffffffffffffffff82111715612246576122456121ef565b5b80604052505050565b60006122596117b2565b9050612265828261221e565b919050565b600067ffffffffffffffff821115612285576122846121ef565b5b61228e82611b21565b9050602081019050919050565b60006122ae6122a98461226a565b61224f565b9050828152602081018484840111156122ca576122c96121ea565b5b6122d5848285611af7565b509392505050565b600082601f8301126122f2576122f16121e5565b5b815161230284826020860161229b565b91505092915050565b600060208284031215612321576123206117bc565b5b600082015167ffffffffffffffff81111561233f5761233e6117c1565b5b61234b848285016122dd565b91505092915050565b7f41756374696f6e2068617320616c726561647920656e64656400000000000000600082015250565b600061238a601983611ae6565b915061239582612354565b602082019050919050565b600060208201905081810360008301526123b98161237d565b9050919050565b7f41756374696f6e20686173206e6f7420656e6465642079657400000000000000600082015250565b60006123f6601983611ae6565b9150612401826123c0565b602082019050919050565b60006020820190508181036000830152612425816123e9565b9050919050565b7f4f776e61626c653a206e6577206f776e657220697320746865207a65726f206160008201527f6464726573730000000000000000000000000000000000000000000000000000602082015250565b6000612488602683611ae6565b91506124938261242c565b604082019050919050565b600060208201905081810360008301526124b78161247b565b9050919050565b7f4f776e61626c653a2063616c6c6572206973206e6f7420746865206f776e6572600082015250565b60006124f4602083611ae6565b91506124ff826124be565b602082019050919050565b60006020820190508181036000830152612523816124e7565b905091905056fea26469706673582212206fa4caf9d430aff9dc53b8567b8802035be7071fb034687d19275634023cbf8364736f6c63430008160033",
  "linkReferences": {},
  "deployedLinkReferences": {}
}