{
  "_format": "hh-sol-artifact-1",
  "contractName": "AuA",
  "sourceName": "contracts/AuAContract.sol",
  "abi": [
    {
      "inputs": [
        {
          "internalType": "string",
          "name": "name",
          "type": "string"
        },
        {
          "internalType": "string",
          "name": "symbol",
          "type": "string"
        },
        {
          "internalType": "uint256",
          "name": "initialSupply",
          "type": "uint256"
        }
      ],
      "stateMutability": "nonpayable",
      "type": "constructor"
    },
    {
      "anonymous": false,
      "inputs": [
        {
          "indexed": true,
          "internalType": "address",
          "name": "owner",
          "type": "address"
        },
        {
          "indexed": true,
          "internalType": "address",
          "name": "spender",
          "type": "address"
        },
        {
          "indexed": false,
          "internalType": "uint256",
          "name": "value",
          "type": "uint256"
        }
      ],
      "name": "Approval",
      "type": "event"
    },
    {
      "anonymous": false,
      "inputs": [
        {
          "indexed": true,
          "internalType": "address",
          "name": "recipient",
          "type": "address"
        },
        {
          "indexed": false,
          "internalType": "uint256",
          "name": "auAAmount",
          "type": "uint256"
        },
        {
          "indexed": false,
          "internalType": "uint256",
          "name": "ethAmount",
          "type": "uint256"
        }
      ],
      "name": "AuAConverted",
      "type": "event"
    },
    {
      "anonymous": false,
      "inputs": [
        {
          "indexed": true,
          "internalType": "address",
          "name": "recipient",
          "type": "address"
        },
        {
          "indexed": false,
          "internalType": "uint256",
          "name": "ethAmount",
          "type": "uint256"
        },
        {
          "indexed": false,
          "internalType": "uint256",
          "name": "auAAmount",
          "type": "uint256"
        }
      ],
      "name": "AuAMinted",
      "type": "event"
    },
    {
      "anonymous": false,
      "inputs": [
        {
          "indexed": true,
          "internalType": "address",
          "name": "from",
          "type": "address"
        },
        {
          "indexed": true,
          "internalType": "address",
          "name": "to",
          "type": "address"
        },
        {
          "indexed": false,
          "internalType": "uint256",
          "name": "value",
          "type": "uint256"
        }
      ],
      "name": "Transfer",
      "type": "event"
    },
    {
      "inputs": [
        {
          "internalType": "address",
          "name": "owner",
          "type": "address"
        },
        {
          "internalType": "address",
          "name": "spender",
          "type": "address"
        }
      ],
      "name": "allowance",
      "outputs": [
        {
          "internalType": "uint256",
          "name": "",
          "type": "uint256"
        }
      ],
      "stateMutability": "view",
      "type": "function"
    },
    {
      "inputs": [
        {
          "internalType": "address",
          "name": "spender",
          "type": "address"
        },
        {
          "internalType": "uint256",
          "name": "amount",
          "type": "uint256"
        }
      ],
      "name": "approve",
      "outputs": [
        {
          "internalType": "bool",
          "name": "",
          "type": "bool"
        }
      ],
      "stateMutability": "nonpayable",
      "type": "function"
    },
    {
      "inputs": [
        {
          "internalType": "address",
          "name": "account",
          "type": "address"
        }
      ],
      "name": "balanceOf",
      "outputs": [
        {
          "internalType": "uint256",
          "name": "",
          "type": "uint256"
        }
      ],
      "stateMutability": "view",
      "type": "function"
    },
    {
      "inputs": [
        {
          "internalType": "uint256",
          "name": "auAAmount",
          "type": "uint256"
        }
      ],
      "name": "convertAuAToEth",
      "outputs": [],
      "stateMutability": "nonpayable",
      "type": "function"
    },
    {
      "inputs": [],
      "name": "convertEthToAuA",
      "outputs": [],
      "stateMutability": "payable",
      "type": "function"
    },
    {
      "inputs": [],
      "name": "decimals",
      "outputs": [
        {
          "internalType": "uint8",
          "name": "",
          "type": "uint8"
        }
      ],
      "stateMutability": "view",
      "type": "function"
    },
    {
      "inputs": [
        {
          "internalType": "address",
          "name": "spender",
          "type": "address"
        },
        {
          "internalType": "uint256",
          "name": "subtractedValue",
          "type": "uint256"
        }
      ],
      "name": "decreaseAllowance",
      "outputs": [
        {
          "internalType": "bool",
          "name": "",
          "type": "bool"
        }
      ],
      "stateMutability": "nonpayable",
      "type": "function"
    },
    {
      "inputs": [],
      "name": "ethToAuARate",
      "outputs": [
        {
          "internalType": "uint256",
          "name": "",
          "type": "uint256"
        }
      ],
      "stateMutability": "view",
      "type": "function"
    },
    {
      "inputs": [
        {
          "internalType": "address",
          "name": "spender",
          "type": "address"
        },
        {
          "internalType": "uint256",
          "name": "addedValue",
          "type": "uint256"
        }
      ],
      "name": "increaseAllowance",
      "outputs": [
        {
          "internalType": "bool",
          "name": "",
          "type": "bool"
        }
      ],
      "stateMutability": "nonpayable",
      "type": "function"
    },
    {
      "inputs": [],
      "name": "name",
      "outputs": [
        {
          "internalType": "string",
          "name": "",
          "type": "string"
        }
      ],
      "stateMutability": "view",
      "type": "function"
    },
    {
      "inputs": [],
      "name": "owner",
      "outputs": [
        {
          "internalType": "address",
          "name": "",
          "type": "address"
        }
      ],
      "stateMutability": "view",
      "type": "function"
    },
    {
      "inputs": [
        {
          "internalType": "uint256",
          "name": "newRate",
          "type": "uint256"
        }
      ],
      "name": "setEthToAuARate",
      "outputs": [],
      "stateMutability": "nonpayable",
      "type": "function"
    },
    {
      "inputs": [],
      "name": "symbol",
      "outputs": [
        {
          "internalType": "string",
          "name": "",
          "type": "string"
        }
      ],
      "stateMutability": "view",
      "type": "function"
    },
    {
      "inputs": [],
      "name": "totalSupply",
      "outputs": [
        {
          "internalType": "uint256",
          "name": "",
          "type": "uint256"
        }
      ],
      "stateMutability": "view",
      "type": "function"
    },
    {
      "inputs": [
        {
          "internalType": "address",
          "name": "to",
          "type": "address"
        },
        {
          "internalType": "uint256",
          "name": "amount",
          "type": "uint256"
        }
      ],
      "name": "transfer",
      "outputs": [
        {
          "internalType": "bool",
          "name": "",
          "type": "bool"
        }
      ],
      "stateMutability": "nonpayable",
      "type": "function"
    },
    {
      "inputs": [
        {
          "internalType": "address",
          "name": "from",
          "type": "address"
        },
        {
          "internalType": "address",
          "name": "to",
          "type": "address"
        },
        {
          "internalType": "uint256",
          "name": "amount",
          "type": "uint256"
        }
      ],
      "name": "transferFrom",
      "outputs": [
        {
          "internalType": "bool",
          "name": "",
          "type": "bool"
        }
      ],
      "stateMutability": "nonpayable",
      "type": "function"
    },
    {
      "stateMutability": "payable",
      "type": "receive"
    }
  ],
  "bytecode": "0x60806040523480156200001157600080fd5b506040516200276538038062002765833981810160405281019062000037919062000409565b828281600390816200004a9190620006e4565b5080600490816200005c9190620006e4565b505050620000713082620000c460201b60201c565b33600560006101000a81548173ffffffffffffffffffffffffffffffffffffffff021916908373ffffffffffffffffffffffffffffffffffffffff160217905550612b67600681905550505050620008e6565b600073ffffffffffffffffffffffffffffffffffffffff168273ffffffffffffffffffffffffffffffffffffffff160362000136576040517f08c379a00000000000000000000000000000000000000000000000000000000081526004016200012d906200082c565b60405180910390fd5b6200014a600083836200023160201b60201c565b80600260008282546200015e91906200087d565b92505081905550806000808473ffffffffffffffffffffffffffffffffffffffff1673ffffffffffffffffffffffffffffffffffffffff168152602001908152602001600020600082825401925050819055508173ffffffffffffffffffffffffffffffffffffffff16600073ffffffffffffffffffffffffffffffffffffffff167fddf252ad1be2c89b69c2b068fc378daa952ba7f163c4a11628f55a4df523b3ef83604051620002119190620008c9565b60405180910390a36200022d600083836200023660201b60201c565b5050565b505050565b505050565b6000604051905090565b600080fd5b600080fd5b600080fd5b600080fd5b6000601f19601f8301169050919050565b7f4e487b7100000000000000000000000000000000000000000000000000000000600052604160045260246000fd5b620002a48262000259565b810181811067ffffffffffffffff82111715620002c657620002c56200026a565b5b80604052505050565b6000620002db6200023b565b9050620002e9828262000299565b919050565b600067ffffffffffffffff8211156200030c576200030b6200026a565b5b620003178262000259565b9050602081019050919050565b60005b838110156200034457808201518184015260208101905062000327565b60008484015250505050565b6000620003676200036184620002ee565b620002cf565b90508281526020810184848401111562000386576200038562000254565b5b6200039384828562000324565b509392505050565b600082601f830112620003b357620003b26200024f565b5b8151620003c584826020860162000350565b91505092915050565b6000819050919050565b620003e381620003ce565b8114620003ef57600080fd5b50565b6000815190506200040381620003d8565b92915050565b60008060006060848603121562000425576200042462000245565b5b600084015167ffffffffffffffff8111156200044657620004456200024a565b5b62000454868287016200039b565b935050602084015167ffffffffffffffff8111156200047857620004776200024a565b5b62000486868287016200039b565b92505060406200049986828701620003f2565b9150509250925092565b600081519050919050565b7f4e487b7100000000000000000000000000000000000000000000000000000000600052602260045260246000fd5b60006002820490506001821680620004f657607f821691505b6020821081036200050c576200050b620004ae565b5b50919050565b60008190508160005260206000209050919050565b60006020601f8301049050919050565b600082821b905092915050565b600060088302620005767fffffffffffffffffffffffffffffffffffffffffffffffffffffffffffffffff8262000537565b62000582868362000537565b95508019841693508086168417925050509392505050565b6000819050919050565b6000620005c5620005bf620005b984620003ce565b6200059a565b620003ce565b9050919050565b6000819050919050565b620005e183620005a4565b620005f9620005f082620005cc565b84845462000544565b825550505050565b600090565b6200061062000601565b6200061d818484620005d6565b505050565b5b8181101562000645576200063960008262000606565b60018101905062000623565b5050565b601f82111562000694576200065e8162000512565b620006698462000527565b8101602085101562000679578190505b62000691620006888562000527565b83018262000622565b50505b505050565b600082821c905092915050565b6000620006b96000198460080262000699565b1980831691505092915050565b6000620006d48383620006a6565b9150826002028217905092915050565b620006ef82620004a3565b67ffffffffffffffff8111156200070b576200070a6200026a565b5b620007178254620004dd565b6200072482828562000649565b600060209050601f8311600181146200075c576000841562000747578287015190505b620007538582620006c6565b865550620007c3565b601f1984166200076c8662000512565b60005b8281101562000796578489015182556001820191506020850194506020810190506200076f565b86831015620007b65784890151620007b2601f891682620006a6565b8355505b6001600288020188555050505b505050505050565b600082825260208201905092915050565b7f45524332303a206d696e7420746f20746865207a65726f206164647265737300600082015250565b600062000814601f83620007cb565b91506200082182620007dc565b602082019050919050565b60006020820190508181036000830152620008478162000805565b9050919050565b7f4e487b7100000000000000000000000000000000000000000000000000000000600052601160045260246000fd5b60006200088a82620003ce565b91506200089783620003ce565b9250828201905080821115620008b257620008b16200084e565b5b92915050565b620008c381620003ce565b82525050565b6000602082019050620008e06000830184620008b8565b92915050565b611e6f80620008f66000396000f3fe6080604052600436106100f75760003560e01c80638da5cb5b1161008a578063b03a738811610059578063b03a73881461035a578063dd62ed3e14610383578063e33ac339146103c0578063ffb9af90146103e957610106565b80638da5cb5b1461028a57806395d89b41146102b5578063a457c2d7146102e0578063a9059cbb1461031d57610106565b8063313ce567116100c6578063313ce567146101db5780633505663f14610206578063395093511461021057806370a082311461024d57610106565b806306fdde031461010b578063095ea7b31461013657806318160ddd1461017357806323b872dd1461019e57610106565b3661010657610104610414565b005b600080fd5b34801561011757600080fd5b506101206104cd565b60405161012d91906112c4565b60405180910390f35b34801561014257600080fd5b5061015d6004803603810190610158919061137f565b61055f565b60405161016a91906113da565b60405180910390f35b34801561017f57600080fd5b50610188610582565b6040516101959190611404565b60405180910390f35b3480156101aa57600080fd5b506101c560048036038101906101c0919061141f565b61058c565b6040516101d291906113da565b60405180910390f35b3480156101e757600080fd5b506101f06105bb565b6040516101fd919061148e565b60405180910390f35b61020e610414565b005b34801561021c57600080fd5b506102376004803603810190610232919061137f565b6105c4565b60405161024491906113da565b60405180910390f35b34801561025957600080fd5b50610274600480360381019061026f91906114a9565b6105fb565b6040516102819190611404565b60405180910390f35b34801561029657600080fd5b5061029f610643565b6040516102ac91906114e5565b60405180910390f35b3480156102c157600080fd5b506102ca610669565b6040516102d791906112c4565b60405180910390f35b3480156102ec57600080fd5b506103076004803603810190610302919061137f565b6106fb565b60405161031491906113da565b60405180910390f35b34801561032957600080fd5b50610344600480360381019061033f919061137f565b610772565b60405161035191906113da565b60405180910390f35b34801561036657600080fd5b50610381600480360381019061037c9190611500565b610795565b005b34801561038f57600080fd5b506103aa60048036038101906103a5919061152d565b6108e1565b6040516103b79190611404565b60405180910390f35b3480156103cc57600080fd5b506103e760048036038101906103e29190611500565b610968565b005b3480156103f557600080fd5b506103fe610a02565b60405161040b9190611404565b60405180910390f35b60003411610457576040517f08c379a000000000000000000000000000000000000000000000000000000000815260040161044e906115b9565b60405180910390fd5b600061046e60065434610a0890919063ffffffff16565b905061047a3382610a1e565b3373ffffffffffffffffffffffffffffffffffffffff167f44c57f6f2ede796f04ef737a148bbbab1f6acc83a83da8fffc7ebc6ee9f7d7c934836040516104c29291906115d9565b60405180910390a250565b6060600380546104dc90611631565b80601f016020809104026020016040519081016040528092919081815260200182805461050890611631565b80156105555780601f1061052a57610100808354040283529160200191610555565b820191906000526020600020905b81548152906001019060200180831161053857829003601f168201915b5050505050905090565b60008061056a610b74565b9050610577818585610b7c565b600191505092915050565b6000600254905090565b600080610597610b74565b90506105a4858285610d45565b6105af858585610dd1565b60019150509392505050565b60006012905090565b6000806105cf610b74565b90506105f08185856105e185896108e1565b6105eb9190611691565b610b7c565b600191505092915050565b60008060008373ffffffffffffffffffffffffffffffffffffffff1673ffffffffffffffffffffffffffffffffffffffff168152602001908152602001600020549050919050565b600560009054906101000a900473ffffffffffffffffffffffffffffffffffffffff1681565b60606004805461067890611631565b80601f01602080910402602001604051908101604052809291908181526020018280546106a490611631565b80156106f15780601f106106c6576101008083540402835291602001916106f1565b820191906000526020600020905b8154815290600101906020018083116106d457829003601f168201915b5050505050905090565b600080610706610b74565b9050600061071482866108e1565b905083811015610759576040517f08c379a000000000000000000000000000000000000000000000000000000000815260040161075090611737565b60405180910390fd5b6107668286868403610b7c565b60019250505092915050565b60008061077d610b74565b905061078a818585610dd1565b600191505092915050565b600081116107d8576040517f08c379a00000000000000000000000000000000000000000000000000000000081526004016107cf906117c9565b60405180910390fd5b806107e2336105fb565b1015610823576040517f08c379a000000000000000000000000000000000000000000000000000000000815260040161081a90611835565b60405180910390fd5b600061083a6006548361104790919063ffffffff16565b9050610846338361105d565b3373ffffffffffffffffffffffffffffffffffffffff166108fc829081150290604051600060405180830381858888f1935050505015801561088c573d6000803e3d6000fd5b503373ffffffffffffffffffffffffffffffffffffffff167fc53d5bc1308ab134a300533068410d83807deb5f0402926c1f5deb22a8654dbf83836040516108d59291906115d9565b60405180910390a25050565b6000600160008473ffffffffffffffffffffffffffffffffffffffff1673ffffffffffffffffffffffffffffffffffffffff16815260200190815260200160002060008373ffffffffffffffffffffffffffffffffffffffff1673ffffffffffffffffffffffffffffffffffffffff16815260200190815260200160002054905092915050565b600560009054906101000a900473ffffffffffffffffffffffffffffffffffffffff1673ffffffffffffffffffffffffffffffffffffffff163373ffffffffffffffffffffffffffffffffffffffff16146109f8576040517f08c379a00000000000000000000000000000000000000000000000000000000081526004016109ef906118a1565b60405180910390fd5b8060068190555050565b60065481565b60008183610a1691906118c1565b905092915050565b600073ffffffffffffffffffffffffffffffffffffffff168273ffffffffffffffffffffffffffffffffffffffff1603610a8d576040517f08c379a0000000000000000000000000000000000000000000000000000000008152600401610a849061194f565b60405180910390fd5b610a996000838361122a565b8060026000828254610aab9190611691565b92505081905550806000808473ffffffffffffffffffffffffffffffffffffffff1673ffffffffffffffffffffffffffffffffffffffff168152602001908152602001600020600082825401925050819055508173ffffffffffffffffffffffffffffffffffffffff16600073ffffffffffffffffffffffffffffffffffffffff167fddf252ad1be2c89b69c2b068fc378daa952ba7f163c4a11628f55a4df523b3ef83604051610b5c9190611404565b60405180910390a3610b706000838361122f565b5050565b600033905090565b600073ffffffffffffffffffffffffffffffffffffffff168373ffffffffffffffffffffffffffffffffffffffff1603610beb576040517f08c379a0000000000000000000000000000000000000000000000000000000008152600401610be2906119e1565b60405180910390fd5b600073ffffffffffffffffffffffffffffffffffffffff168273ffffffffffffffffffffffffffffffffffffffff1603610c5a576040517f08c379a0000000000000000000000000000000000000000000000000000000008152600401610c5190611a73565b60405180910390fd5b80600160008573ffffffffffffffffffffffffffffffffffffffff1673ffffffffffffffffffffffffffffffffffffffff16815260200190815260200160002060008473ffffffffffffffffffffffffffffffffffffffff1673ffffffffffffffffffffffffffffffffffffffff168152602001908152602001600020819055508173ffffffffffffffffffffffffffffffffffffffff168373ffffffffffffffffffffffffffffffffffffffff167f8c5be1e5ebec7d5bd14f71427d1e84f3dd0314c0f7b2291e5b200ac8c7c3b92583604051610d389190611404565b60405180910390a3505050565b6000610d5184846108e1565b90507fffffffffffffffffffffffffffffffffffffffffffffffffffffffffffffffff8114610dcb5781811015610dbd576040517f08c379a0000000000000000000000000000000000000000000000000000000008152600401610db490611adf565b60405180910390fd5b610dca8484848403610b7c565b5b50505050565b600073ffffffffffffffffffffffffffffffffffffffff168373ffffffffffffffffffffffffffffffffffffffff1603610e40576040517f08c379a0000000000000000000000000000000000000000000000000000000008152600401610e3790611b71565b60405180910390fd5b600073ffffffffffffffffffffffffffffffffffffffff168273ffffffffffffffffffffffffffffffffffffffff1603610eaf576040517f08c379a0000000000000000000000000000000000000000000000000000000008152600401610ea690611c03565b60405180910390fd5b610eba83838361122a565b60008060008573ffffffffffffffffffffffffffffffffffffffff1673ffffffffffffffffffffffffffffffffffffffff16815260200190815260200160002054905081811015610f40576040517f08c379a0000000000000000000000000000000000000000000000000000000008152600401610f3790611c95565b60405180910390fd5b8181036000808673ffffffffffffffffffffffffffffffffffffffff1673ffffffffffffffffffffffffffffffffffffffff16815260200190815260200160002081905550816000808573ffffffffffffffffffffffffffffffffffffffff1673ffffffffffffffffffffffffffffffffffffffff168152602001908152602001600020600082825401925050819055508273ffffffffffffffffffffffffffffffffffffffff168473ffffffffffffffffffffffffffffffffffffffff167fddf252ad1be2c89b69c2b068fc378daa952ba7f163c4a11628f55a4df523b3ef8460405161102e9190611404565b60405180910390a361104184848461122f565b50505050565b600081836110559190611ce4565b905092915050565b600073ffffffffffffffffffffffffffffffffffffffff168273ffffffffffffffffffffffffffffffffffffffff16036110cc576040517f08c379a00000000000000000000000000000000000000000000000000000000081526004016110c390611d87565b60405180910390fd5b6110d88260008361122a565b60008060008473ffffffffffffffffffffffffffffffffffffffff1673ffffffffffffffffffffffffffffffffffffffff1681526020019081526020016000205490508181101561115e576040517f08c379a000000000000000000000000000000000000000000000000000000000815260040161115590611e19565b60405180910390fd5b8181036000808573ffffffffffffffffffffffffffffffffffffffff1673ffffffffffffffffffffffffffffffffffffffff1681526020019081526020016000208190555081600260008282540392505081905550600073ffffffffffffffffffffffffffffffffffffffff168373ffffffffffffffffffffffffffffffffffffffff167fddf252ad1be2c89b69c2b068fc378daa952ba7f163c4a11628f55a4df523b3ef846040516112119190611404565b60405180910390a36112258360008461122f565b505050565b505050565b505050565b600081519050919050565b600082825260208201905092915050565b60005b8381101561126e578082015181840152602081019050611253565b60008484015250505050565b6000601f19601f8301169050919050565b600061129682611234565b6112a0818561123f565b93506112b0818560208601611250565b6112b98161127a565b840191505092915050565b600060208201905081810360008301526112de818461128b565b905092915050565b600080fd5b600073ffffffffffffffffffffffffffffffffffffffff82169050919050565b6000611316826112eb565b9050919050565b6113268161130b565b811461133157600080fd5b50565b6000813590506113438161131d565b92915050565b6000819050919050565b61135c81611349565b811461136757600080fd5b50565b60008135905061137981611353565b92915050565b60008060408385031215611396576113956112e6565b5b60006113a485828601611334565b92505060206113b58582860161136a565b9150509250929050565b60008115159050919050565b6113d4816113bf565b82525050565b60006020820190506113ef60008301846113cb565b92915050565b6113fe81611349565b82525050565b600060208201905061141960008301846113f5565b92915050565b600080600060608486031215611438576114376112e6565b5b600061144686828701611334565b935050602061145786828701611334565b92505060406114688682870161136a565b9150509250925092565b600060ff82169050919050565b61148881611472565b82525050565b60006020820190506114a3600083018461147f565b92915050565b6000602082840312156114bf576114be6112e6565b5b60006114cd84828501611334565b91505092915050565b6114df8161130b565b82525050565b60006020820190506114fa60008301846114d6565b92915050565b600060208284031215611516576115156112e6565b5b60006115248482850161136a565b91505092915050565b60008060408385031215611544576115436112e6565b5b600061155285828601611334565b925050602061156385828601611334565b9150509250929050565b7f4d7573742073656e642045544800000000000000000000000000000000000000600082015250565b60006115a3600d8361123f565b91506115ae8261156d565b602082019050919050565b600060208201905081810360008301526115d281611596565b9050919050565b60006040820190506115ee60008301856113f5565b6115fb60208301846113f5565b9392505050565b7f4e487b7100000000000000000000000000000000000000000000000000000000600052602260045260246000fd5b6000600282049050600182168061164957607f821691505b60208210810361165c5761165b611602565b5b50919050565b7f4e487b7100000000000000000000000000000000000000000000000000000000600052601160045260246000fd5b600061169c82611349565b91506116a783611349565b92508282019050808211156116bf576116be611662565b5b92915050565b7f45524332303a2064656372656173656420616c6c6f77616e63652062656c6f7760008201527f207a65726f000000000000000000000000000000000000000000000000000000602082015250565b600061172160258361123f565b915061172c826116c5565b604082019050919050565b6000602082019050818103600083015261175081611714565b9050919050565b7f41754120616d6f756e74206d7573742062652067726561746572207468616e2060008201527f3000000000000000000000000000000000000000000000000000000000000000602082015250565b60006117b360218361123f565b91506117be82611757565b604082019050919050565b600060208201905081810360008301526117e2816117a6565b9050919050565b7f496e73756666696369656e74204175412062616c616e63650000000000000000600082015250565b600061181f60188361123f565b915061182a826117e9565b602082019050919050565b6000602082019050818103600083015261184e81611812565b9050919050565b7f4e6f742074686520636f6e7472616374206f776e657200000000000000000000600082015250565b600061188b60168361123f565b915061189682611855565b602082019050919050565b600060208201905081810360008301526118ba8161187e565b9050919050565b60006118cc82611349565b91506118d783611349565b92508282026118e581611349565b915082820484148315176118fc576118fb611662565b5b5092915050565b7f45524332303a206d696e7420746f20746865207a65726f206164647265737300600082015250565b6000611939601f8361123f565b915061194482611903565b602082019050919050565b600060208201905081810360008301526119688161192c565b9050919050565b7f45524332303a20617070726f76652066726f6d20746865207a65726f2061646460008201527f7265737300000000000000000000000000000000000000000000000000000000602082015250565b60006119cb60248361123f565b91506119d68261196f565b604082019050919050565b600060208201905081810360008301526119fa816119be565b9050919050565b7f45524332303a20617070726f766520746f20746865207a65726f20616464726560008201527f7373000000000000000000000000000000000000000000000000000000000000602082015250565b6000611a5d60228361123f565b9150611a6882611a01565b604082019050919050565b60006020820190508181036000830152611a8c81611a50565b9050919050565b7f45524332303a20696e73756666696369656e7420616c6c6f77616e6365000000600082015250565b6000611ac9601d8361123f565b9150611ad482611a93565b602082019050919050565b60006020820190508181036000830152611af881611abc565b9050919050565b7f45524332303a207472616e736665722066726f6d20746865207a65726f20616460008201527f6472657373000000000000000000000000000000000000000000000000000000602082015250565b6000611b5b60258361123f565b9150611b6682611aff565b604082019050919050565b60006020820190508181036000830152611b8a81611b4e565b9050919050565b7f45524332303a207472616e7366657220746f20746865207a65726f206164647260008201527f6573730000000000000000000000000000000000000000000000000000000000602082015250565b6000611bed60238361123f565b9150611bf882611b91565b604082019050919050565b60006020820190508181036000830152611c1c81611be0565b9050919050565b7f45524332303a207472616e7366657220616d6f756e742065786365656473206260008201527f616c616e63650000000000000000000000000000000000000000000000000000602082015250565b6000611c7f60268361123f565b9150611c8a82611c23565b604082019050919050565b60006020820190508181036000830152611cae81611c72565b9050919050565b7f4e487b7100000000000000000000000000000000000000000000000000000000600052601260045260246000fd5b6000611cef82611349565b9150611cfa83611349565b925082611d0a57611d09611cb5565b5b828204905092915050565b7f45524332303a206275726e2066726f6d20746865207a65726f2061646472657360008201527f7300000000000000000000000000000000000000000000000000000000000000602082015250565b6000611d7160218361123f565b9150611d7c82611d15565b604082019050919050565b60006020820190508181036000830152611da081611d64565b9050919050565b7f45524332303a206275726e20616d6f756e7420657863656564732062616c616e60008201527f6365000000000000000000000000000000000000000000000000000000000000602082015250565b6000611e0360228361123f565b9150611e0e82611da7565b604082019050919050565b60006020820190508181036000830152611e3281611df6565b905091905056fea2646970667358221220972cb934dc1dda4ce40b79626598b8baaaf98f994de97e058b11b58324abc9c364736f6c63430008160033",
  "linkReferences": {},
  "deployedLinkReferences": {}
}