{
  "_format": "hh-sol-artifact-1",
  "contractName": "AuANFT",
  "sourceName": "contracts/NFTContract.sol",
  "abi": [
    {
      "inputs": [],
      "stateMutability": "nonpayable",
      "type": "constructor"
    },
    {
      "anonymous": false,
      "inputs": [
        {
          "indexed": true,
          "internalType": "address",
          "name": "owner",
          "type": "address"
        },
        {
          "indexed": true,
          "internalType": "address",
          "name": "approved",
          "type": "address"
        },
        {
          "indexed": true,
          "internalType": "uint256",
          "name": "tokenId",
          "type": "uint256"
        }
      ],
      "name": "Approval",
      "type": "event"
    },
    {
      "anonymous": false,
      "inputs": [
        {
          "indexed": true,
          "internalType": "address",
          "name": "owner",
          "type": "address"
        },
        {
          "indexed": true,
          "internalType": "address",
          "name": "operator",
          "type": "address"
        },
        {
          "indexed": false,
          "internalType": "bool",
          "name": "approved",
          "type": "bool"
        }
      ],
      "name": "ApprovalForAll",
      "type": "event"
    },
    {
      "anonymous": false,
      "inputs": [
        {
          "indexed": false,
          "internalType": "uint256",
          "name": "_fromTokenId",
          "type": "uint256"
        },
        {
          "indexed": false,
          "internalType": "uint256",
          "name": "_toTokenId",
          "type": "uint256"
        }
      ],
      "name": "BatchMetadataUpdate",
      "type": "event"
    },
    {
      "anonymous": false,
      "inputs": [
        {
          "indexed": false,
          "internalType": "uint256",
          "name": "_tokenId",
          "type": "uint256"
        }
      ],
      "name": "MetadataUpdate",
      "type": "event"
    },
    {
      "anonymous": false,
      "inputs": [
        {
          "indexed": true,
          "internalType": "address",
          "name": "from",
          "type": "address"
        },
        {
          "indexed": true,
          "internalType": "address",
          "name": "to",
          "type": "address"
        },
        {
          "indexed": true,
          "internalType": "uint256",
          "name": "tokenId",
          "type": "uint256"
        }
      ],
      "name": "Transfer",
      "type": "event"
    },
    {
      "inputs": [
        {
          "internalType": "address",
          "name": "to",
          "type": "address"
        },
        {
          "internalType": "uint256",
          "name": "tokenId",
          "type": "uint256"
        }
      ],
      "name": "approve",
      "outputs": [],
      "stateMutability": "nonpayable",
      "type": "function"
    },
    {
      "inputs": [
        {
          "internalType": "address",
          "name": "owner",
          "type": "address"
        }
      ],
      "name": "balanceOf",
      "outputs": [
        {
          "internalType": "uint256",
          "name": "",
          "type": "uint256"
        }
      ],
      "stateMutability": "view",
      "type": "function"
    },
    {
      "inputs": [],
      "name": "comparePrice",
      "outputs": [
        {
          "internalType": "string",
          "name": "",
          "type": "string"
        }
      ],
      "stateMutability": "nonpayable",
      "type": "function"
    },
    {
      "inputs": [
        {
          "internalType": "uint256",
          "name": "tokenId",
          "type": "uint256"
        }
      ],
      "name": "getApproved",
      "outputs": [
        {
          "internalType": "address",
          "name": "",
          "type": "address"
        }
      ],
      "stateMutability": "view",
      "type": "function"
    },
    {
      "inputs": [],
      "name": "getChainlinkDataFeedLatestAnswer",
      "outputs": [
        {
          "internalType": "uint256",
          "name": "",
          "type": "uint256"
        }
      ],
      "stateMutability": "view",
      "type": "function"
    },
    {
      "inputs": [
        {
          "internalType": "address",
          "name": "owner",
          "type": "address"
        },
        {
          "internalType": "address",
          "name": "operator",
          "type": "address"
        }
      ],
      "name": "isApprovedForAll",
      "outputs": [
        {
          "internalType": "bool",
          "name": "",
          "type": "bool"
        }
      ],
      "stateMutability": "view",
      "type": "function"
    },
    {
      "inputs": [],
      "name": "lastPrice",
      "outputs": [
        {
          "internalType": "uint256",
          "name": "",
          "type": "uint256"
        }
      ],
      "stateMutability": "view",
      "type": "function"
    },
    {
      "inputs": [
        {
          "internalType": "address",
          "name": "to",
          "type": "address"
        }
      ],
      "name": "mint",
      "outputs": [
        {
          "internalType": "uint256",
          "name": "",
          "type": "uint256"
        }
      ],
      "stateMutability": "nonpayable",
      "type": "function"
    },
    {
      "inputs": [
        {
          "internalType": "address",
          "name": "to",
          "type": "address"
        },
        {
          "internalType": "uint256",
          "name": "sourceId",
          "type": "uint256"
        }
      ],
      "name": "mintFrom",
      "outputs": [
        {
          "internalType": "uint256",
          "name": "",
          "type": "uint256"
        }
      ],
      "stateMutability": "nonpayable",
      "type": "function"
    },
    {
      "inputs": [],
      "name": "name",
      "outputs": [
        {
          "internalType": "string",
          "name": "",
          "type": "string"
        }
      ],
      "stateMutability": "view",
      "type": "function"
    },
    {
      "inputs": [
        {
          "internalType": "uint256",
          "name": "tokenId",
          "type": "uint256"
        }
      ],
      "name": "ownerOf",
      "outputs": [
        {
          "internalType": "address",
          "name": "",
          "type": "address"
        }
      ],
      "stateMutability": "view",
      "type": "function"
    },
    {
      "inputs": [],
      "name": "priceIndicator",
      "outputs": [
        {
          "internalType": "string",
          "name": "",
          "type": "string"
        }
      ],
      "stateMutability": "view",
      "type": "function"
    },
    {
      "inputs": [
        {
          "internalType": "address",
          "name": "from",
          "type": "address"
        },
        {
          "internalType": "address",
          "name": "to",
          "type": "address"
        },
        {
          "internalType": "uint256",
          "name": "tokenId",
          "type": "uint256"
        }
      ],
      "name": "safeTransferFrom",
      "outputs": [],
      "stateMutability": "nonpayable",
      "type": "function"
    },
    {
      "inputs": [
        {
          "internalType": "address",
          "name": "from",
          "type": "address"
        },
        {
          "internalType": "address",
          "name": "to",
          "type": "address"
        },
        {
          "internalType": "uint256",
          "name": "tokenId",
          "type": "uint256"
        },
        {
          "internalType": "bytes",
          "name": "data",
          "type": "bytes"
        }
      ],
      "name": "safeTransferFrom",
      "outputs": [],
      "stateMutability": "nonpayable",
      "type": "function"
    },
    {
      "inputs": [
        {
          "internalType": "address",
          "name": "operator",
          "type": "address"
        },
        {
          "internalType": "bool",
          "name": "approved",
          "type": "bool"
        }
      ],
      "name": "setApprovalForAll",
      "outputs": [],
      "stateMutability": "nonpayable",
      "type": "function"
    },
    {
      "inputs": [
        {
          "internalType": "bytes4",
          "name": "interfaceId",
          "type": "bytes4"
        }
      ],
      "name": "supportsInterface",
      "outputs": [
        {
          "internalType": "bool",
          "name": "",
          "type": "bool"
        }
      ],
      "stateMutability": "view",
      "type": "function"
    },
    {
      "inputs": [],
      "name": "symbol",
      "outputs": [
        {
          "internalType": "string",
          "name": "",
          "type": "string"
        }
      ],
      "stateMutability": "view",
      "type": "function"
    },
    {
      "inputs": [],
      "name": "tokenIdCounter",
      "outputs": [
        {
          "internalType": "uint256",
          "name": "_value",
          "type": "uint256"
        }
      ],
      "stateMutability": "view",
      "type": "function"
    },
    {
      "inputs": [
        {
          "internalType": "uint256",
          "name": "tokenId",
          "type": "uint256"
        }
      ],
      "name": "tokenURI",
      "outputs": [
        {
          "internalType": "string",
          "name": "",
          "type": "string"
        }
      ],
      "stateMutability": "view",
      "type": "function"
    },
    {
      "inputs": [
        {
          "internalType": "address",
          "name": "from",
          "type": "address"
        },
        {
          "internalType": "address",
          "name": "to",
          "type": "address"
        },
        {
          "internalType": "uint256",
          "name": "tokenId",
          "type": "uint256"
        }
      ],
      "name": "transferFrom",
      "outputs": [],
      "stateMutability": "nonpayable",
      "type": "function"
    },
    {
      "inputs": [
        {
          "internalType": "uint256",
          "name": "tokenId",
          "type": "uint256"
        },
        {
          "internalType": "uint256",
          "name": "sourceId",
          "type": "uint256"
        }
      ],
      "name": "updateMetaData",
      "outputs": [],
      "stateMutability": "nonpayable",
      "type": "function"
    }
  ],
  "bytecode": "0x608060405260006009556040518060400160405280600481526020017ff09f988000000000000000000000000000000000000000000000000000000000815250600a90816200004f919062001534565b506040518060400160405280600481526020017ff09f989400000000000000000000000000000000000000000000000000000000815250600b908162000096919062001534565b506040518060400160405280600481526020017ff09f989100000000000000000000000000000000000000000000000000000000815250600c9081620000dd919062001534565b50348015620000eb57600080fd5b506040518060400160405280601481526020017f456e636f646520535647204254432050726963650000000000000000000000008152506040518060400160405280600681526020017f4254434e46540000000000000000000000000000000000000000000000000000815250816000908162000169919062001534565b5080600190816200017b919062001534565b505050604051806060016040528067de41ba4fc9d91ad967ffffffffffffffff1681526020016040518060400160405280600781526020017f5365706f6c69610000000000000000000000000000000000000000000000000081525081526020016040518060400160405280600781526020017f2330303030666600000000000000000000000000000000000000000000000000815250815250600e600080815260200190815260200160002060008201518160000160006101000a81548167ffffffffffffffff021916908367ffffffffffffffff16021790555060208201518160010190816200026e919062001534565b50604082015181600201908162000286919062001534565b50905050604051806060016040528067ccf0a31a221f3c9b67ffffffffffffffff1681526020016040518060400160405280600481526020017f46756a690000000000000000000000000000000000000000000000000000000081525081526020016040518060400160405280600781526020017f2366663030303000000000000000000000000000000000000000000000000000815250815250600e60006001815260200190815260200160002060008201518160000160006101000a81548167ffffffffffffffff021916908367ffffffffffffffff16021790555060208201518160010190816200037b919062001534565b50604082015181600201908162000393919062001534565b50905050604051806060016040528067adecc60412ce25a567ffffffffffffffff1681526020016040518060400160405280600681526020017f4d756d626169000000000000000000000000000000000000000000000000000081525081526020016040518060400160405280600781526020017f2334623030366500000000000000000000000000000000000000000000000000815250815250600e60006002815260200190815260200160002060008201518160000160006101000a81548167ffffffffffffffff021916908367ffffffffffffffff160217905550602082015181600101908162000488919062001534565b506040820151816002019081620004a0919062001534565b50905050731b44f3514812d835eb1bdb0acb33d3fa3351ee43600860006101000a81548173ffffffffffffffffffffffffffffffffffffffff021916908373ffffffffffffffffffffffffffffffffffffffff1602179055506200050a336200051160201b60201c565b50620026c3565b600080620005278360006200053260201b60201c565b905080915050919050565b6000806200054760076200058960201b60201c565b90506200055b84826200059760201b60201c565b6200056d8184620005bd60201b60201c565b6200057f60076200068260201b60201c565b8091505092915050565b600081600001549050919050565b620005b98282604051806020016040528060008152506200069860201b60201c565b5050565b6000620005d0826200070660201b60201c565b9050600062000641620005e983620007e860201b60201c565b600e6000868152602001908152602001600020600101620006126009546200095e60201b60201c565b604051602001620006269392919062001ad4565b604051602081830303815290604052620007e860201b60201c565b905060008160405160200162000658919062001bf7565b60405160208183030381529060405290506200067b858262000a3d60201b60201c565b5050505050565b6001816000016000828254019250508190555050565b620006aa838362000af060201b60201c565b620006bf600084848462000d3660201b60201c565b62000701576040517f08c379a0000000000000000000000000000000000000000000000000000000008152600401620006f89062001ca4565b60405180910390fd5b505050565b60606000600e600084815260200190815260200160002060020160405160200162000732919062001e70565b604051602081830303815290604052905060006200075562000eda60201b60201c565b60405160200162000767919062001f8f565b604051602081830303815290604052905060006040518060400160405280600681526020017f3c2f7376673e000000000000000000000000000000000000000000000000000081525090506000838383604051602001620007cb9392919062001fc2565b604051602081830303815290604052905080945050505050919050565b606060008251036200080c5760405180602001604052806000815250905062000959565b60006040518060600160405280604081526020016200635c60409139905060006003600285516200083e919062002028565b6200084a919062002092565b6004620008589190620020ca565b67ffffffffffffffff811115620008745762000873620012c5565b5b6040519080825280601f01601f191660200182016040528015620008a75781602001600182028036833780820191505090505b509050600182016020820185865187015b8082101562000915576003820191508151603f8160121c168501518453600184019350603f81600c1c168501518453600184019350603f8160061c168501518453600184019350603f8116850151845360018401935050620008b8565b5050600386510660018114620009345760028114620009485762000950565b603d6001830353603d600283035362000950565b603d60018303535b50505080925050505b919050565b606060006001620009758462000fed60201b60201c565b01905060008167ffffffffffffffff811115620009975762000996620012c5565b5b6040519080825280601f01601f191660200182016040528015620009ca5781602001600182028036833780820191505090505b509050600082602001820190505b60011562000a32578080600190039150507f3031323334353637383961626364656600000000000000000000000000000000600a86061a8153600a858162000a255762000a2462002063565b5b04945060008503620009d8575b819350505050919050565b62000a4e826200115960201b60201c565b62000a90576040517f08c379a000000000000000000000000000000000000000000000000000000000815260040162000a87906200218b565b60405180910390fd5b8060066000848152602001908152602001600020908162000ab2919062001534565b507ff8e1a15aba9398e019f0b49df1a4fde98ee17ae345cb5f6b5e2c27f5033e8ce78260405162000ae49190620021be565b60405180910390a15050565b600073ffffffffffffffffffffffffffffffffffffffff168273ffffffffffffffffffffffffffffffffffffffff160362000b62576040517f08c379a000000000000000000000000000000000000000000000000000000000815260040162000b59906200222b565b60405180910390fd5b62000b73816200115960201b60201c565b1562000bb6576040517f08c379a000000000000000000000000000000000000000000000000000000000815260040162000bad906200229d565b60405180910390fd5b62000bcc600083836001620011a260201b60201c565b62000bdd816200115960201b60201c565b1562000c20576040517f08c379a000000000000000000000000000000000000000000000000000000000815260040162000c17906200229d565b60405180910390fd5b6001600360008473ffffffffffffffffffffffffffffffffffffffff1673ffffffffffffffffffffffffffffffffffffffff16815260200190815260200160002060008282540192505081905550816002600083815260200190815260200160002060006101000a81548173ffffffffffffffffffffffffffffffffffffffff021916908373ffffffffffffffffffffffffffffffffffffffff160217905550808273ffffffffffffffffffffffffffffffffffffffff16600073ffffffffffffffffffffffffffffffffffffffff167fddf252ad1be2c89b69c2b068fc378daa952ba7f163c4a11628f55a4df523b3ef60405160405180910390a462000d32600083836001620011a860201b60201c565b5050565b600062000d5f8473ffffffffffffffffffffffffffffffffffffffff16620011ae60201b60201c565b1562000ecd578373ffffffffffffffffffffffffffffffffffffffff1663150b7a0262000d91620011d160201b60201c565b8786866040518563ffffffff1660e01b815260040162000db5949392919062002372565b6020604051808303816000875af192505050801562000df457506040513d601f19601f8201168201806040525081019062000df1919062002428565b60015b62000e7c573d806000811462000e27576040519150601f19603f3d011682016040523d82523d6000602084013e62000e2c565b606091505b50600081510362000e74576040517f08c379a000000000000000000000000000000000000000000000000000000000815260040162000e6b9062001ca4565b60405180910390fd5b805181602001fd5b63150b7a0260e01b7bffffffffffffffffffffffffffffffffffffffffffffffffffffffff1916817bffffffffffffffffffffffffffffffffffffffffffffffffffffffff19161491505062000ed2565b600190505b949350505050565b6060600062000eee620011d960201b60201c565b905060095481111562000f1457600a600d908162000f0d919062002487565b5062000f4d565b60095481101562000f3857600b600d908162000f31919062002487565b5062000f4c565b600c600d908162000f4a919062002487565b505b5b80600981905550600d805462000f639062001323565b80601f016020809104026020016040519081016040528092919081815260200182805462000f919062001323565b801562000fe25780601f1062000fb65761010080835404028352916020019162000fe2565b820191906000526020600020905b81548152906001019060200180831162000fc457829003601f168201915b505050505091505090565b600080600090507a184f03e93ff9f4daa797ed6e38ed64bf6a1f01000000000000000083106200104f577a184f03e93ff9f4daa797ed6e38ed64bf6a1f010000000000000000838162001045576200104462002063565b5b0492506040810190505b6d04ee2d6d415b85acef8100000000831062001090576d04ee2d6d415b85acef8100000000838162001086576200108562002063565b5b0492506020810190505b662386f26fc100008310620010c357662386f26fc100008381620010b957620010b862002063565b5b0492506010810190505b6305f5e1008310620010f0576305f5e1008381620010e657620010e562002063565b5b0492506008810190505b6127108310620011195761271083816200110f576200110e62002063565b5b0492506004810190505b6064831062001140576064838162001136576200113562002063565b5b0492506002810190505b600a831062001150576001810190505b80915050919050565b60008073ffffffffffffffffffffffffffffffffffffffff1662001183836200127d60201b60201c565b73ffffffffffffffffffffffffffffffffffffffff1614159050919050565b50505050565b50505050565b6000808273ffffffffffffffffffffffffffffffffffffffff163b119050919050565b600033905090565b600080600860009054906101000a900473ffffffffffffffffffffffffffffffffffffffff1673ffffffffffffffffffffffffffffffffffffffff1663feaf968c6040518163ffffffff1660e01b815260040160a060405180830381865afa1580156200124a573d6000803e3d6000fd5b505050506040513d601f19601f820116820180604052508101906200127091906200263b565b5050509150508091505090565b60006002600083815260200190815260200160002060009054906101000a900473ffffffffffffffffffffffffffffffffffffffff169050919050565b600081519050919050565b7f4e487b7100000000000000000000000000000000000000000000000000000000600052604160045260246000fd5b7f4e487b7100000000000000000000000000000000000000000000000000000000600052602260045260246000fd5b600060028204905060018216806200133c57607f821691505b602082108103620013525762001351620012f4565b5b50919050565b60008190508160005260206000209050919050565b60006020601f8301049050919050565b600082821b905092915050565b600060088302620013bc7fffffffffffffffffffffffffffffffffffffffffffffffffffffffffffffffff826200137d565b620013c886836200137d565b95508019841693508086168417925050509392505050565b6000819050919050565b6000819050919050565b6000620014156200140f6200140984620013e0565b620013ea565b620013e0565b9050919050565b6000819050919050565b6200143183620013f4565b6200144962001440826200141c565b8484546200138a565b825550505050565b600090565b6200146062001451565b6200146d81848462001426565b505050565b5b8181101562001495576200148960008262001456565b60018101905062001473565b5050565b601f821115620014e457620014ae8162001358565b620014b9846200136d565b81016020851015620014c9578190505b620014e1620014d8856200136d565b83018262001472565b50505b505050565b600082821c905092915050565b60006200150960001984600802620014e9565b1980831691505092915050565b6000620015248383620014f6565b9150826002028217905092915050565b6200153f82620012ba565b67ffffffffffffffff8111156200155b576200155a620012c5565b5b62001567825462001323565b6200157482828562001499565b600060209050601f831160018114620015ac576000841562001597578287015190505b620015a3858262001516565b86555062001613565b601f198416620015bc8662001358565b60005b82811015620015e657848901518255600182019150602085019450602081019050620015bf565b8683101562001606578489015162001602601f891682620014f6565b8355505b6001600288020188555050505b505050505050565b600081905092915050565b7f7b226e616d65223a202243726f73732d636861696e20535647222c0000000000600082015250565b60006200165e601b836200161b565b91506200166b8262001626565b601b82019050919050565b7f226465736372697074696f6e223a2022535647204e46547320696e206469666660008201527f6572656e7420636861696e73222c000000000000000000000000000000000000602082015250565b6000620016d4602e836200161b565b9150620016e18262001676565b602e82019050919050565b7f22696d616765223a2022646174613a696d6167652f7376672b786d6c3b62617360008201527f6536342c00000000000000000000000000000000000000000000000000000000602082015250565b60006200174a6024836200161b565b91506200175782620016ec565b602482019050919050565b60005b838110156200178257808201518184015260208101905062001765565b60008484015250505050565b60006200179b82620012ba565b620017a781856200161b565b9350620017b981856020860162001762565b80840191505092915050565b7f222c000000000000000000000000000000000000000000000000000000000000600082015250565b6000620017fd6002836200161b565b91506200180a82620017c5565b600282019050919050565b7f2261747472696275746573223a205b0000000000000000000000000000000000600082015250565b60006200184d600f836200161b565b91506200185a8262001815565b600f82019050919050565b7f7b2274726169745f74797065223a2022736f75726365222c0000000000000000600082015250565b60006200189d6018836200161b565b9150620018aa8262001865565b601882019050919050565b7f2276616c7565223a202200000000000000000000000000000000000000000000600082015250565b6000620018ed600a836200161b565b9150620018fa82620018b5565b600a82019050919050565b60008154620019148162001323565b6200192081866200161b565b945060018216600081146200193e576001811462001954576200198b565b60ff19831686528115158202860193506200198b565b6200195f8562001358565b60005b83811015620019835781548189015260018201915060208101905062001962565b838801955050505b50505092915050565b7f227d2c0000000000000000000000000000000000000000000000000000000000600082015250565b6000620019cc6003836200161b565b9150620019d98262001994565b600382019050919050565b7f7b2274726169745f74797065223a20227072696365222c000000000000000000600082015250565b600062001a1c6017836200161b565b915062001a2982620019e4565b601782019050919050565b7f227d000000000000000000000000000000000000000000000000000000000000600082015250565b600062001a6c6002836200161b565b915062001a798262001a34565b600282019050919050565b7f5d7d000000000000000000000000000000000000000000000000000000000000600082015250565b600062001abc6002836200161b565b915062001ac98262001a84565b600282019050919050565b600062001ae1826200164f565b915062001aee82620016c5565b915062001afb826200173b565b915062001b0982866200178e565b915062001b1682620017ee565b915062001b23826200183e565b915062001b30826200188e565b915062001b3d82620018de565b915062001b4b828562001905565b915062001b5882620019bd565b915062001b658262001a0d565b915062001b7282620018de565b915062001b8082846200178e565b915062001b8d8262001a5d565b915062001b9a8262001aad565b9150819050949350505050565b7f646174613a6170706c69636174696f6e2f6a736f6e3b6261736536342c000000600082015250565b600062001bdf601d836200161b565b915062001bec8262001ba7565b601d82019050919050565b600062001c048262001bd0565b915062001c1282846200178e565b915081905092915050565b600082825260208201905092915050565b7f4552433732313a207472616e7366657220746f206e6f6e20455243373231526560008201527f63656976657220696d706c656d656e7465720000000000000000000000000000602082015250565b600062001c8c60328362001c1d565b915062001c998262001c2e565b604082019050919050565b6000602082019050818103600083015262001cbf8162001c7d565b9050919050565b7f3c73766720786d6c6e733d27687474703a2f2f7777772e77332e6f72672f323060008201527f30302f737667272076657273696f6e3d27312e312720786d6c6e733a786c696e60208201527f6b3d27687474703a2f2f7777772e77332e6f72672f313939392f786c696e6b2760408201527f20786d6c6e733a7376676a733d27687474703a2f2f7376676a732e636f6d2f7360608201527f76676a73272077696474683d2735303027206865696768743d2735303027207060808201527f72657365727665417370656374526174696f3d276e6f6e65272076696577426f60a08201527f783d273020302035303020353030273e203c726563742077696474683d27313060c08201527f302527206865696768743d2731303025272066696c6c3d27000000000000000060e082015250565b600062001e0860f8836200161b565b915062001e158262001cc6565b60f882019050919050565b7f27202f3e00000000000000000000000000000000000000000000000000000000600082015250565b600062001e586004836200161b565b915062001e658262001e20565b600482019050919050565b600062001e7d8262001df9565b915062001e8b828462001905565b915062001e988262001e49565b915081905092915050565b7f3c7465787420783d273530252720793d273530252720666f6e742d73697a653d60008201527f273132382720646f6d696e616e742d626173656c696e653d276d6964646c652760208201527f20746578742d616e63686f723d276d6964646c65273e00000000000000000000604082015250565b600062001f276056836200161b565b915062001f348262001ea3565b605682019050919050565b7f3c2f746578743e00000000000000000000000000000000000000000000000000600082015250565b600062001f776007836200161b565b915062001f848262001f3f565b600782019050919050565b600062001f9c8262001f18565b915062001faa82846200178e565b915062001fb78262001f68565b915081905092915050565b600062001fd082866200178e565b915062001fde82856200178e565b915062001fec82846200178e565b9150819050949350505050565b7f4e487b7100000000000000000000000000000000000000000000000000000000600052601160045260246000fd5b60006200203582620013e0565b91506200204283620013e0565b92508282019050808211156200205d576200205c62001ff9565b5b92915050565b7f4e487b7100000000000000000000000000000000000000000000000000000000600052601260045260246000fd5b60006200209f82620013e0565b9150620020ac83620013e0565b925082620020bf57620020be62002063565b5b828204905092915050565b6000620020d782620013e0565b9150620020e483620013e0565b9250828202620020f481620013e0565b915082820484148315176200210e576200210d62001ff9565b5b5092915050565b7f45524337323155524953746f726167653a2055524920736574206f66206e6f6e60008201527f6578697374656e7420746f6b656e000000000000000000000000000000000000602082015250565b600062002173602e8362001c1d565b9150620021808262002115565b604082019050919050565b60006020820190508181036000830152620021a68162002164565b9050919050565b620021b881620013e0565b82525050565b6000602082019050620021d56000830184620021ad565b92915050565b7f4552433732313a206d696e7420746f20746865207a65726f2061646472657373600082015250565b60006200221360208362001c1d565b91506200222082620021db565b602082019050919050565b60006020820190508181036000830152620022468162002204565b9050919050565b7f4552433732313a20746f6b656e20616c7265616479206d696e74656400000000600082015250565b600062002285601c8362001c1d565b915062002292826200224d565b602082019050919050565b60006020820190508181036000830152620022b88162002276565b9050919050565b600073ffffffffffffffffffffffffffffffffffffffff82169050919050565b6000620022ec82620022bf565b9050919050565b620022fe81620022df565b82525050565b600081519050919050565b600082825260208201905092915050565b6000601f19601f8301169050919050565b60006200233e8262002304565b6200234a81856200230f565b93506200235c81856020860162001762565b620023678162002320565b840191505092915050565b6000608082019050620023896000830187620022f3565b620023986020830186620022f3565b620023a76040830185620021ad565b8181036060830152620023bb818462002331565b905095945050505050565b600080fd5b60007fffffffff0000000000000000000000000000000000000000000000000000000082169050919050565b6200240281620023cb565b81146200240e57600080fd5b50565b6000815190506200242281620023f7565b92915050565b600060208284031215620024415762002440620023c6565b5b6000620024518482850162002411565b91505092915050565b6000815490506200246b8162001323565b9050919050565b60008190508160005260206000209050919050565b8181036200249757505062002586565b620024a2826200245a565b67ffffffffffffffff811115620024be57620024bd620012c5565b5b620024ca825462001323565b620024d782828562001499565b6000601f8311600181146200250b5760008415620024f6578287015490505b62002502858262001516565b8655506200257f565b601f1984166200251b8762002472565b9650620025288662001358565b60005b8281101562002552578489015482556001820191506001850194506020810190506200252b565b868310156200257257848901546200256e601f891682620014f6565b8355505b6001600288020188555050505b5050505050505b565b600069ffffffffffffffffffff82169050919050565b620025a98162002588565b8114620025b557600080fd5b50565b600081519050620025c9816200259e565b92915050565b6000819050919050565b620025e481620025cf565b8114620025f057600080fd5b50565b6000815190506200260481620025d9565b92915050565b6200261581620013e0565b81146200262157600080fd5b50565b60008151905062002635816200260a565b92915050565b600080600080600060a086880312156200265a5762002659620023c6565b5b60006200266a88828901620025b8565b95505060206200267d88828901620025f3565b9450506040620026908882890162002624565b9350506060620026a38882890162002624565b9250506080620026b688828901620025b8565b9150509295509295909350565b613c8980620026d36000396000f3fe608060405234801561001057600080fd5b50600436106101375760003560e01c80636352211e116100b857806398bdf6f51161007c57806398bdf6f514610362578063a22cb46514610380578063b88d4fde1461039c578063bea4dfb5146103b8578063c87b56dd146103d6578063e985e9c51461040657610137565b80636352211e146102965780636a627842146102c657806370a08231146102f657806375a86a691461032657806395d89b411461034457610137565b80631cc74859116100ff5780631cc74859146101f457806323b872dd1461022457806342842e0e146102405780635eeda9cb1461025c578063626a86b21461027857610137565b806301ffc9a71461013c578063053f14da1461016c57806306fdde031461018a578063081812fc146101a8578063095ea7b3146101d8575b600080fd5b610156600480360381019061015191906120bd565b610436565b6040516101639190612105565b60405180910390f35b610174610448565b6040516101819190612139565b60405180910390f35b61019261044e565b60405161019f91906121e4565b60405180910390f35b6101c260048036038101906101bd9190612232565b6104e0565b6040516101cf91906122a0565b60405180910390f35b6101f260048036038101906101ed91906122e7565b610526565b005b61020e600480360381019061020991906122e7565b61063d565b60405161021b9190612139565b60405180910390f35b61023e60048036038101906102399190612327565b610674565b005b61025a60048036038101906102559190612327565b6106d4565b005b6102766004803603810190610271919061237a565b6106f4565b005b61028061078d565b60405161028d91906121e4565b60405180910390f35b6102b060048036038101906102ab9190612232565b610886565b6040516102bd91906122a0565b60405180910390f35b6102e060048036038101906102db91906123ba565b61090c565b6040516102ed9190612139565b60405180910390f35b610310600480360381019061030b91906123ba565b610925565b60405161031d9190612139565b60405180910390f35b61032e6109dc565b60405161033b91906121e4565b60405180910390f35b61034c610a6a565b60405161035991906121e4565b60405180910390f35b61036a610afc565b6040516103779190612139565b60405180910390f35b61039a60048036038101906103959190612413565b610b08565b005b6103b660048036038101906103b19190612588565b610b1e565b005b6103c0610b80565b6040516103cd9190612139565b60405180910390f35b6103f060048036038101906103eb9190612232565b610c21565b6040516103fd91906121e4565b60405180910390f35b610420600480360381019061041b919061260b565b610c33565b60405161042d9190612105565b60405180910390f35b600061044182610cc7565b9050919050565b60095481565b60606000805461045d9061267a565b80601f01602080910402602001604051908101604052809291908181526020018280546104899061267a565b80156104d65780601f106104ab576101008083540402835291602001916104d6565b820191906000526020600020905b8154815290600101906020018083116104b957829003601f168201915b5050505050905090565b60006104eb82610d28565b6004600083815260200190815260200160002060009054906101000a900473ffffffffffffffffffffffffffffffffffffffff169050919050565b600061053182610886565b90508073ffffffffffffffffffffffffffffffffffffffff168373ffffffffffffffffffffffffffffffffffffffff16036105a1576040517f08c379a00000000000000000000000000000000000000000000000000000000081526004016105989061271d565b60405180910390fd5b8073ffffffffffffffffffffffffffffffffffffffff166105c0610d73565b73ffffffffffffffffffffffffffffffffffffffff1614806105ef57506105ee816105e9610d73565b610c33565b5b61062e576040517f08c379a0000000000000000000000000000000000000000000000000000000008152600401610625906127af565b60405180910390fd5b6106388383610d7b565b505050565b60008061064a6007610e34565b90506106568482610e42565b61066081846106f4565b61066a6007610e60565b8091505092915050565b61068561067f610d73565b82610e76565b6106c4576040517f08c379a00000000000000000000000000000000000000000000000000000000081526004016106bb90612841565b60405180910390fd5b6106cf838383610f0b565b505050565b6106ef83838360405180602001604052806000815250610b1e565b505050565b60006106ff82611204565b9050600061075661070f836112d8565b600e600086815260200190815260200160002060010161073060095461143b565b60405160200161074293929190612cc5565b6040516020818303038152906040526112d8565b905060008160405160200161076b9190612dc6565b60405160208183030381529060405290506107868582611509565b5050505050565b60606000610799610b80565b90506009548111156107bb57600a600d90816107b59190612faa565b506107ee565b6009548110156107db57600b600d90816107d59190612faa565b506107ed565b600c600d90816107eb9190612faa565b505b5b80600981905550600d80546108029061267a565b80601f016020809104026020016040519081016040528092919081815260200182805461082e9061267a565b801561087b5780601f106108505761010080835404028352916020019161087b565b820191906000526020600020905b81548152906001019060200180831161085e57829003601f168201915b505050505091505090565b600080610892836115ad565b9050600073ffffffffffffffffffffffffffffffffffffffff168173ffffffffffffffffffffffffffffffffffffffff1603610903576040517f08c379a00000000000000000000000000000000000000000000000000000000081526004016108fa906130de565b60405180910390fd5b80915050919050565b60008061091a83600061063d565b905080915050919050565b60008073ffffffffffffffffffffffffffffffffffffffff168273ffffffffffffffffffffffffffffffffffffffff1603610995576040517f08c379a000000000000000000000000000000000000000000000000000000000815260040161098c90613170565b60405180910390fd5b600360008373ffffffffffffffffffffffffffffffffffffffff1673ffffffffffffffffffffffffffffffffffffffff168152602001908152602001600020549050919050565b600d80546109e99061267a565b80601f0160208091040260200160405190810160405280929190818152602001828054610a159061267a565b8015610a625780601f10610a3757610100808354040283529160200191610a62565b820191906000526020600020905b815481529060010190602001808311610a4557829003601f168201915b505050505081565b606060018054610a799061267a565b80601f0160208091040260200160405190810160405280929190818152602001828054610aa59061267a565b8015610af25780601f10610ac757610100808354040283529160200191610af2565b820191906000526020600020905b815481529060010190602001808311610ad557829003601f168201915b5050505050905090565b60078060000154905081565b610b1a610b13610d73565b83836115ea565b5050565b610b2f610b29610d73565b83610e76565b610b6e576040517f08c379a0000000000000000000000000000000000000000000000000000000008152600401610b6590612841565b60405180910390fd5b610b7a84848484611756565b50505050565b600080600860009054906101000a900473ffffffffffffffffffffffffffffffffffffffff1673ffffffffffffffffffffffffffffffffffffffff1663feaf968c6040518163ffffffff1660e01b815260040160a060405180830381865afa158015610bf0573d6000803e3d6000fd5b505050506040513d601f19601f82011682018060405250810190610c14919061321d565b5050509150508091505090565b6060610c2c826117b2565b9050919050565b6000600560008473ffffffffffffffffffffffffffffffffffffffff1673ffffffffffffffffffffffffffffffffffffffff16815260200190815260200160002060008373ffffffffffffffffffffffffffffffffffffffff1673ffffffffffffffffffffffffffffffffffffffff16815260200190815260200160002060009054906101000a900460ff16905092915050565b6000634906490660e01b7bffffffffffffffffffffffffffffffffffffffffffffffffffffffff1916827bffffffffffffffffffffffffffffffffffffffffffffffffffffffff19161480610d215750610d20826118c4565b5b9050919050565b610d31816119a6565b610d70576040517f08c379a0000000000000000000000000000000000000000000000000000000008152600401610d67906130de565b60405180910390fd5b50565b600033905090565b816004600083815260200190815260200160002060006101000a81548173ffffffffffffffffffffffffffffffffffffffff021916908373ffffffffffffffffffffffffffffffffffffffff160217905550808273ffffffffffffffffffffffffffffffffffffffff16610dee83610886565b73ffffffffffffffffffffffffffffffffffffffff167f8c5be1e5ebec7d5bd14f71427d1e84f3dd0314c0f7b2291e5b200ac8c7c3b92560405160405180910390a45050565b600081600001549050919050565b610e5c8282604051806020016040528060008152506119e7565b5050565b6001816000016000828254019250508190555050565b600080610e8283610886565b90508073ffffffffffffffffffffffffffffffffffffffff168473ffffffffffffffffffffffffffffffffffffffff161480610ec45750610ec38185610c33565b5b80610f0257508373ffffffffffffffffffffffffffffffffffffffff16610eea846104e0565b73ffffffffffffffffffffffffffffffffffffffff16145b91505092915050565b8273ffffffffffffffffffffffffffffffffffffffff16610f2b82610886565b73ffffffffffffffffffffffffffffffffffffffff1614610f81576040517f08c379a0000000000000000000000000000000000000000000000000000000008152600401610f789061330a565b60405180910390fd5b600073ffffffffffffffffffffffffffffffffffffffff168273ffffffffffffffffffffffffffffffffffffffff1603610ff0576040517f08c379a0000000000000000000000000000000000000000000000000000000008152600401610fe79061339c565b60405180910390fd5b610ffd8383836001611a42565b8273ffffffffffffffffffffffffffffffffffffffff1661101d82610886565b73ffffffffffffffffffffffffffffffffffffffff1614611073576040517f08c379a000000000000000000000000000000000000000000000000000000000815260040161106a9061330a565b60405180910390fd5b6004600082815260200190815260200160002060006101000a81549073ffffffffffffffffffffffffffffffffffffffff02191690556001600360008573ffffffffffffffffffffffffffffffffffffffff1673ffffffffffffffffffffffffffffffffffffffff168152602001908152602001600020600082825403925050819055506001600360008473ffffffffffffffffffffffffffffffffffffffff1673ffffffffffffffffffffffffffffffffffffffff16815260200190815260200160002060008282540192505081905550816002600083815260200190815260200160002060006101000a81548173ffffffffffffffffffffffffffffffffffffffff021916908373ffffffffffffffffffffffffffffffffffffffff160217905550808273ffffffffffffffffffffffffffffffffffffffff168473ffffffffffffffffffffffffffffffffffffffff167fddf252ad1be2c89b69c2b068fc378daa952ba7f163c4a11628f55a4df523b3ef60405160405180910390a46111ff8383836001611a48565b505050565b60606000600e600084815260200190815260200160002060020160405160200161122e919061355e565b6040516020818303038152906040529050600061124961078d565b604051602001611259919061366f565b604051602081830303815290604052905060006040518060400160405280600681526020017f3c2f7376673e0000000000000000000000000000000000000000000000000000815250905060008383836040516020016112bb9392919061369c565b604051602081830303815290604052905080945050505050919050565b606060008251036112fa57604051806020016040528060008152509050611436565b6000604051806060016040528060408152602001613c14604091399050600060036002855161132991906136fc565b611333919061375f565b600461133f9190613790565b67ffffffffffffffff8111156113585761135761245d565b5b6040519080825280601f01601f19166020018201604052801561138a5781602001600182028036833780820191505090505b509050600182016020820185865187015b808210156113f6576003820191508151603f8160121c168501518453600184019350603f81600c1c168501518453600184019350603f8160061c168501518453600184019350603f811685015184536001840193505061139b565b505060038651066001811461141257600281146114255761142d565b603d6001830353603d600283035361142d565b603d60018303535b50505080925050505b919050565b60606000600161144a84611a4e565b01905060008167ffffffffffffffff8111156114695761146861245d565b5b6040519080825280601f01601f19166020018201604052801561149b5781602001600182028036833780820191505090505b509050600082602001820190505b6001156114fe578080600190039150507f3031323334353637383961626364656600000000000000000000000000000000600a86061a8153600a85816114f2576114f1613730565b5b049450600085036114a9575b819350505050919050565b611512826119a6565b611551576040517f08c379a000000000000000000000000000000000000000000000000000000000815260040161154890613844565b60405180910390fd5b806006600084815260200190815260200160002090816115719190613864565b507ff8e1a15aba9398e019f0b49df1a4fde98ee17ae345cb5f6b5e2c27f5033e8ce7826040516115a19190612139565b60405180910390a15050565b60006002600083815260200190815260200160002060009054906101000a900473ffffffffffffffffffffffffffffffffffffffff169050919050565b8173ffffffffffffffffffffffffffffffffffffffff168373ffffffffffffffffffffffffffffffffffffffff1603611658576040517f08c379a000000000000000000000000000000000000000000000000000000000815260040161164f90613982565b60405180910390fd5b80600560008573ffffffffffffffffffffffffffffffffffffffff1673ffffffffffffffffffffffffffffffffffffffff16815260200190815260200160002060008473ffffffffffffffffffffffffffffffffffffffff1673ffffffffffffffffffffffffffffffffffffffff16815260200190815260200160002060006101000a81548160ff0219169083151502179055508173ffffffffffffffffffffffffffffffffffffffff168373ffffffffffffffffffffffffffffffffffffffff167f17307eab39ab6107e8899845ad3d59bd9653f200f220920489ca2b5937696c31836040516117499190612105565b60405180910390a3505050565b611761848484610f0b565b61176d84848484611ba1565b6117ac576040517f08c379a00000000000000000000000000000000000000000000000000000000081526004016117a390613a14565b60405180910390fd5b50505050565b60606117bd82610d28565b60006006600084815260200190815260200160002080546117dd9061267a565b80601f01602080910402602001604051908101604052809291908181526020018280546118099061267a565b80156118565780601f1061182b57610100808354040283529160200191611856565b820191906000526020600020905b81548152906001019060200180831161183957829003601f168201915b505050505090506000611867611d28565b9050600081510361187c5781925050506118bf565b6000825111156118b1578082604051602001611899929190613a34565b604051602081830303815290604052925050506118bf565b6118ba84611d3f565b925050505b919050565b60007f80ac58cd000000000000000000000000000000000000000000000000000000007bffffffffffffffffffffffffffffffffffffffffffffffffffffffff1916827bffffffffffffffffffffffffffffffffffffffffffffffffffffffff1916148061198f57507f5b5e139f000000000000000000000000000000000000000000000000000000007bffffffffffffffffffffffffffffffffffffffffffffffffffffffff1916827bffffffffffffffffffffffffffffffffffffffffffffffffffffffff1916145b8061199f575061199e82611da7565b5b9050919050565b60008073ffffffffffffffffffffffffffffffffffffffff166119c8836115ad565b73ffffffffffffffffffffffffffffffffffffffff1614159050919050565b6119f18383611e11565b6119fe6000848484611ba1565b611a3d576040517f08c379a0000000000000000000000000000000000000000000000000000000008152600401611a3490613a14565b60405180910390fd5b505050565b50505050565b50505050565b600080600090507a184f03e93ff9f4daa797ed6e38ed64bf6a1f0100000000000000008310611aac577a184f03e93ff9f4daa797ed6e38ed64bf6a1f0100000000000000008381611aa257611aa1613730565b5b0492506040810190505b6d04ee2d6d415b85acef81000000008310611ae9576d04ee2d6d415b85acef81000000008381611adf57611ade613730565b5b0492506020810190505b662386f26fc100008310611b1857662386f26fc100008381611b0e57611b0d613730565b5b0492506010810190505b6305f5e1008310611b41576305f5e1008381611b3757611b36613730565b5b0492506008810190505b6127108310611b66576127108381611b5c57611b5b613730565b5b0492506004810190505b60648310611b895760648381611b7f57611b7e613730565b5b0492506002810190505b600a8310611b98576001810190505b80915050919050565b6000611bc28473ffffffffffffffffffffffffffffffffffffffff1661202e565b15611d1b578373ffffffffffffffffffffffffffffffffffffffff1663150b7a02611beb610d73565b8786866040518563ffffffff1660e01b8152600401611c0d9493929190613aad565b6020604051808303816000875af1925050508015611c4957506040513d601f19601f82011682018060405250810190611c469190613b0e565b60015b611ccb573d8060008114611c79576040519150601f19603f3d011682016040523d82523d6000602084013e611c7e565b606091505b506000815103611cc3576040517f08c379a0000000000000000000000000000000000000000000000000000000008152600401611cba90613a14565b60405180910390fd5b805181602001fd5b63150b7a0260e01b7bffffffffffffffffffffffffffffffffffffffffffffffffffffffff1916817bffffffffffffffffffffffffffffffffffffffffffffffffffffffff191614915050611d20565b600190505b949350505050565b606060405180602001604052806000815250905090565b6060611d4a82610d28565b6000611d54611d28565b90506000815111611d745760405180602001604052806000815250611d9f565b80611d7e8461143b565b604051602001611d8f929190613a34565b6040516020818303038152906040525b915050919050565b60007f01ffc9a7000000000000000000000000000000000000000000000000000000007bffffffffffffffffffffffffffffffffffffffffffffffffffffffff1916827bffffffffffffffffffffffffffffffffffffffffffffffffffffffff1916149050919050565b600073ffffffffffffffffffffffffffffffffffffffff168273ffffffffffffffffffffffffffffffffffffffff1603611e80576040517f08c379a0000000000000000000000000000000000000000000000000000000008152600401611e7790613b87565b60405180910390fd5b611e89816119a6565b15611ec9576040517f08c379a0000000000000000000000000000000000000000000000000000000008152600401611ec090613bf3565b60405180910390fd5b611ed7600083836001611a42565b611ee0816119a6565b15611f20576040517f08c379a0000000000000000000000000000000000000000000000000000000008152600401611f1790613bf3565b60405180910390fd5b6001600360008473ffffffffffffffffffffffffffffffffffffffff1673ffffffffffffffffffffffffffffffffffffffff16815260200190815260200160002060008282540192505081905550816002600083815260200190815260200160002060006101000a81548173ffffffffffffffffffffffffffffffffffffffff021916908373ffffffffffffffffffffffffffffffffffffffff160217905550808273ffffffffffffffffffffffffffffffffffffffff16600073ffffffffffffffffffffffffffffffffffffffff167fddf252ad1be2c89b69c2b068fc378daa952ba7f163c4a11628f55a4df523b3ef60405160405180910390a461202a600083836001611a48565b5050565b6000808273ffffffffffffffffffffffffffffffffffffffff163b119050919050565b6000604051905090565b600080fd5b600080fd5b60007fffffffff0000000000000000000000000000000000000000000000000000000082169050919050565b61209a81612065565b81146120a557600080fd5b50565b6000813590506120b781612091565b92915050565b6000602082840312156120d3576120d261205b565b5b60006120e1848285016120a8565b91505092915050565b60008115159050919050565b6120ff816120ea565b82525050565b600060208201905061211a60008301846120f6565b92915050565b6000819050919050565b61213381612120565b82525050565b600060208201905061214e600083018461212a565b92915050565b600081519050919050565b600082825260208201905092915050565b60005b8381101561218e578082015181840152602081019050612173565b60008484015250505050565b6000601f19601f8301169050919050565b60006121b682612154565b6121c0818561215f565b93506121d0818560208601612170565b6121d98161219a565b840191505092915050565b600060208201905081810360008301526121fe81846121ab565b905092915050565b61220f81612120565b811461221a57600080fd5b50565b60008135905061222c81612206565b92915050565b6000602082840312156122485761224761205b565b5b60006122568482850161221d565b91505092915050565b600073ffffffffffffffffffffffffffffffffffffffff82169050919050565b600061228a8261225f565b9050919050565b61229a8161227f565b82525050565b60006020820190506122b56000830184612291565b92915050565b6122c48161227f565b81146122cf57600080fd5b50565b6000813590506122e1816122bb565b92915050565b600080604083850312156122fe576122fd61205b565b5b600061230c858286016122d2565b925050602061231d8582860161221d565b9150509250929050565b6000806000606084860312156123405761233f61205b565b5b600061234e868287016122d2565b935050602061235f868287016122d2565b92505060406123708682870161221d565b9150509250925092565b600080604083850312156123915761239061205b565b5b600061239f8582860161221d565b92505060206123b08582860161221d565b9150509250929050565b6000602082840312156123d0576123cf61205b565b5b60006123de848285016122d2565b91505092915050565b6123f0816120ea565b81146123fb57600080fd5b50565b60008135905061240d816123e7565b92915050565b6000806040838503121561242a5761242961205b565b5b6000612438858286016122d2565b9250506020612449858286016123fe565b9150509250929050565b600080fd5b600080fd5b7f4e487b7100000000000000000000000000000000000000000000000000000000600052604160045260246000fd5b6124958261219a565b810181811067ffffffffffffffff821117156124b4576124b361245d565b5b80604052505050565b60006124c7612051565b90506124d3828261248c565b919050565b600067ffffffffffffffff8211156124f3576124f261245d565b5b6124fc8261219a565b9050602081019050919050565b82818337600083830152505050565b600061252b612526846124d8565b6124bd565b90508281526020810184848401111561254757612546612458565b5b612552848285612509565b509392505050565b600082601f83011261256f5761256e612453565b5b813561257f848260208601612518565b91505092915050565b600080600080608085870312156125a2576125a161205b565b5b60006125b0878288016122d2565b94505060206125c1878288016122d2565b93505060406125d28782880161221d565b925050606085013567ffffffffffffffff8111156125f3576125f2612060565b5b6125ff8782880161255a565b91505092959194509250565b600080604083850312156126225761262161205b565b5b6000612630858286016122d2565b9250506020612641858286016122d2565b9150509250929050565b7f4e487b7100000000000000000000000000000000000000000000000000000000600052602260045260246000fd5b6000600282049050600182168061269257607f821691505b6020821081036126a5576126a461264b565b5b50919050565b7f4552433732313a20617070726f76616c20746f2063757272656e74206f776e6560008201527f7200000000000000000000000000000000000000000000000000000000000000602082015250565b600061270760218361215f565b9150612712826126ab565b604082019050919050565b60006020820190508181036000830152612736816126fa565b9050919050565b7f4552433732313a20617070726f76652063616c6c6572206973206e6f7420746f60008201527f6b656e206f776e6572206f7220617070726f76656420666f7220616c6c000000602082015250565b6000612799603d8361215f565b91506127a48261273d565b604082019050919050565b600060208201905081810360008301526127c88161278c565b9050919050565b7f4552433732313a2063616c6c6572206973206e6f7420746f6b656e206f776e6560008201527f72206f7220617070726f76656400000000000000000000000000000000000000602082015250565b600061282b602d8361215f565b9150612836826127cf565b604082019050919050565b6000602082019050818103600083015261285a8161281e565b9050919050565b600081905092915050565b7f7b226e616d65223a202243726f73732d636861696e20535647222c0000000000600082015250565b60006128a2601b83612861565b91506128ad8261286c565b601b82019050919050565b7f226465736372697074696f6e223a2022535647204e46547320696e206469666660008201527f6572656e7420636861696e73222c000000000000000000000000000000000000602082015250565b6000612914602e83612861565b915061291f826128b8565b602e82019050919050565b7f22696d616765223a2022646174613a696d6167652f7376672b786d6c3b62617360008201527f6536342c00000000000000000000000000000000000000000000000000000000602082015250565b6000612986602483612861565b91506129918261292a565b602482019050919050565b60006129a782612154565b6129b18185612861565b93506129c1818560208601612170565b80840191505092915050565b7f222c000000000000000000000000000000000000000000000000000000000000600082015250565b6000612a03600283612861565b9150612a0e826129cd565b600282019050919050565b7f2261747472696275746573223a205b0000000000000000000000000000000000600082015250565b6000612a4f600f83612861565b9150612a5a82612a19565b600f82019050919050565b7f7b2274726169745f74797065223a2022736f75726365222c0000000000000000600082015250565b6000612a9b601883612861565b9150612aa682612a65565b601882019050919050565b7f2276616c7565223a202200000000000000000000000000000000000000000000600082015250565b6000612ae7600a83612861565b9150612af282612ab1565b600a82019050919050565b60008190508160005260206000209050919050565b60008154612b1f8161267a565b612b298186612861565b94506001821660008114612b445760018114612b5957612b8c565b60ff1983168652811515820286019350612b8c565b612b6285612afd565b60005b83811015612b8457815481890152600182019150602081019050612b65565b838801955050505b50505092915050565b7f227d2c0000000000000000000000000000000000000000000000000000000000600082015250565b6000612bcb600383612861565b9150612bd682612b95565b600382019050919050565b7f7b2274726169745f74797065223a20227072696365222c000000000000000000600082015250565b6000612c17601783612861565b9150612c2282612be1565b601782019050919050565b7f227d000000000000000000000000000000000000000000000000000000000000600082015250565b6000612c63600283612861565b9150612c6e82612c2d565b600282019050919050565b7f5d7d000000000000000000000000000000000000000000000000000000000000600082015250565b6000612caf600283612861565b9150612cba82612c79565b600282019050919050565b6000612cd082612895565b9150612cdb82612907565b9150612ce682612979565b9150612cf2828661299c565b9150612cfd826129f6565b9150612d0882612a42565b9150612d1382612a8e565b9150612d1e82612ada565b9150612d2a8285612b12565b9150612d3582612bbe565b9150612d4082612c0a565b9150612d4b82612ada565b9150612d57828461299c565b9150612d6282612c56565b9150612d6d82612ca2565b9150819050949350505050565b7f646174613a6170706c69636174696f6e2f6a736f6e3b6261736536342c000000600082015250565b6000612db0601d83612861565b9150612dbb82612d7a565b601d82019050919050565b6000612dd182612da3565b9150612ddd828461299c565b915081905092915050565b600081549050612df78161267a565b9050919050565b60008190508160005260206000209050919050565b60006020601f8301049050919050565b600082821b905092915050565b600060088302612e607fffffffffffffffffffffffffffffffffffffffffffffffffffffffffffffffff82612e23565b612e6a8683612e23565b95508019841693508086168417925050509392505050565b6000819050919050565b6000612ea7612ea2612e9d84612120565b612e82565b612120565b9050919050565b6000819050919050565b612ec183612e8c565b612ed5612ecd82612eae565b848454612e30565b825550505050565b600090565b612eea612edd565b612ef5818484612eb8565b505050565b5b81811015612f1957612f0e600082612ee2565b600181019050612efb565b5050565b601f821115612f5e57612f2f81612afd565b612f3884612e13565b81016020851015612f47578190505b612f5b612f5385612e13565b830182612efa565b50505b505050565b600082821c905092915050565b6000612f8160001984600802612f63565b1980831691505092915050565b6000612f9a8383612f70565b9150826002028217905092915050565b818103612fb8575050613090565b612fc182612de8565b67ffffffffffffffff811115612fda57612fd961245d565b5b612fe4825461267a565b612fef828285612f1d565b6000601f83116001811461301e576000841561300c578287015490505b6130168582612f8e565b865550613089565b601f19841661302c87612dfe565b965061303786612afd565b60005b8281101561305f5784890154825560018201915060018501945060208101905061303a565b8683101561307c5784890154613078601f891682612f70565b8355505b6001600288020188555050505b5050505050505b565b7f4552433732313a20696e76616c696420746f6b656e2049440000000000000000600082015250565b60006130c860188361215f565b91506130d382613092565b602082019050919050565b600060208201905081810360008301526130f7816130bb565b9050919050565b7f4552433732313a2061646472657373207a65726f206973206e6f74206120766160008201527f6c6964206f776e65720000000000000000000000000000000000000000000000602082015250565b600061315a60298361215f565b9150613165826130fe565b604082019050919050565b600060208201905081810360008301526131898161314d565b9050919050565b600069ffffffffffffffffffff82169050919050565b6131af81613190565b81146131ba57600080fd5b50565b6000815190506131cc816131a6565b92915050565b6000819050919050565b6131e5816131d2565b81146131f057600080fd5b50565b600081519050613202816131dc565b92915050565b60008151905061321781612206565b92915050565b600080600080600060a086880312156132395761323861205b565b5b6000613247888289016131bd565b9550506020613258888289016131f3565b945050604061326988828901613208565b935050606061327a88828901613208565b925050608061328b888289016131bd565b9150509295509295909350565b7f4552433732313a207472616e736665722066726f6d20696e636f72726563742060008201527f6f776e6572000000000000000000000000000000000000000000000000000000602082015250565b60006132f460258361215f565b91506132ff82613298565b604082019050919050565b60006020820190508181036000830152613323816132e7565b9050919050565b7f4552433732313a207472616e7366657220746f20746865207a65726f2061646460008201527f7265737300000000000000000000000000000000000000000000000000000000602082015250565b600061338660248361215f565b91506133918261332a565b604082019050919050565b600060208201905081810360008301526133b581613379565b9050919050565b7f3c73766720786d6c6e733d27687474703a2f2f7777772e77332e6f72672f323060008201527f30302f737667272076657273696f6e3d27312e312720786d6c6e733a786c696e60208201527f6b3d27687474703a2f2f7777772e77332e6f72672f313939392f786c696e6b2760408201527f20786d6c6e733a7376676a733d27687474703a2f2f7376676a732e636f6d2f7360608201527f76676a73272077696474683d2735303027206865696768743d2735303027207060808201527f72657365727665417370656374526174696f3d276e6f6e65272076696577426f60a08201527f783d273020302035303020353030273e203c726563742077696474683d27313060c08201527f302527206865696768743d2731303025272066696c6c3d27000000000000000060e082015250565b60006134fc60f883612861565b9150613507826133bc565b60f882019050919050565b7f27202f3e00000000000000000000000000000000000000000000000000000000600082015250565b6000613548600483612861565b915061355382613512565b600482019050919050565b6000613569826134ef565b91506135758284612b12565b91506135808261353b565b915081905092915050565b7f3c7465787420783d273530252720793d273530252720666f6e742d73697a653d60008201527f273132382720646f6d696e616e742d626173656c696e653d276d6964646c652760208201527f20746578742d616e63686f723d276d6964646c65273e00000000000000000000604082015250565b600061360d605683612861565b91506136188261358b565b605682019050919050565b7f3c2f746578743e00000000000000000000000000000000000000000000000000600082015250565b6000613659600783612861565b915061366482613623565b600782019050919050565b600061367a82613600565b9150613686828461299c565b91506136918261364c565b915081905092915050565b60006136a8828661299c565b91506136b4828561299c565b91506136c0828461299c565b9150819050949350505050565b7f4e487b7100000000000000000000000000000000000000000000000000000000600052601160045260246000fd5b600061370782612120565b915061371283612120565b925082820190508082111561372a576137296136cd565b5b92915050565b7f4e487b7100000000000000000000000000000000000000000000000000000000600052601260045260246000fd5b600061376a82612120565b915061377583612120565b92508261378557613784613730565b5b828204905092915050565b600061379b82612120565b91506137a683612120565b92508282026137b481612120565b915082820484148315176137cb576137ca6136cd565b5b5092915050565b7f45524337323155524953746f726167653a2055524920736574206f66206e6f6e60008201527f6578697374656e7420746f6b656e000000000000000000000000000000000000602082015250565b600061382e602e8361215f565b9150613839826137d2565b604082019050919050565b6000602082019050818103600083015261385d81613821565b9050919050565b61386d82612154565b67ffffffffffffffff8111156138865761388561245d565b5b613890825461267a565b61389b828285612f1d565b600060209050601f8311600181146138ce57600084156138bc578287015190505b6138c68582612f8e565b86555061392e565b601f1984166138dc86612afd565b60005b82811015613904578489015182556001820191506020850194506020810190506138df565b86831015613921578489015161391d601f891682612f70565b8355505b6001600288020188555050505b505050505050565b7f4552433732313a20617070726f766520746f2063616c6c657200000000000000600082015250565b600061396c60198361215f565b915061397782613936565b602082019050919050565b6000602082019050818103600083015261399b8161395f565b9050919050565b7f4552433732313a207472616e7366657220746f206e6f6e20455243373231526560008201527f63656976657220696d706c656d656e7465720000000000000000000000000000602082015250565b60006139fe60328361215f565b9150613a09826139a2565b604082019050919050565b60006020820190508181036000830152613a2d816139f1565b9050919050565b6000613a40828561299c565b9150613a4c828461299c565b91508190509392505050565b600081519050919050565b600082825260208201905092915050565b6000613a7f82613a58565b613a898185613a63565b9350613a99818560208601612170565b613aa28161219a565b840191505092915050565b6000608082019050613ac26000830187612291565b613acf6020830186612291565b613adc604083018561212a565b8181036060830152613aee8184613a74565b905095945050505050565b600081519050613b0881612091565b92915050565b600060208284031215613b2457613b2361205b565b5b6000613b3284828501613af9565b91505092915050565b7f4552433732313a206d696e7420746f20746865207a65726f2061646472657373600082015250565b6000613b7160208361215f565b9150613b7c82613b3b565b602082019050919050565b60006020820190508181036000830152613ba081613b64565b9050919050565b7f4552433732313a20746f6b656e20616c7265616479206d696e74656400000000600082015250565b6000613bdd601c8361215f565b9150613be882613ba7565b602082019050919050565b60006020820190508181036000830152613c0c81613bd0565b905091905056fe4142434445464748494a4b4c4d4e4f505152535455565758595a6162636465666768696a6b6c6d6e6f707172737475767778797a303132333435363738392b2fa2646970667358221220289a67b871adfe19693163ee4924ed24fe9d4a0bdbc541d1e8bbf5f446ba060464736f6c634300081600334142434445464748494a4b4c4d4e4f505152535455565758595a6162636465666768696a6b6c6d6e6f707172737475767778797a303132333435363738392b2f",
  "linkReferences": {},
  "deployedLinkReferences": {}
}